{"contracts/TreasuryVault.sol":{"TreasuryVault":{"abi":[{"inputs":[{"internalType":"address","name":"_brdg","type":"address"}],"stateMutability":"nonpayable","type":"constructor"},{"inputs":[{"internalType":"address","name":"owner","type":"address"}],"name":"OwnableInvalidOwner","type":"error"},{"inputs":[{"internalType":"address","name":"account","type":"address"}],"name":"OwnableUnauthorizedAccount","type":"error"},{"inputs":[{"internalType":"address","name":"token","type":"address"}],"name":"SafeERC20FailedOperation","type":"error"},{"anonymous":false,"inputs":[{"indexed":true,"internalType":"address","name":"from","type":"address"},{"indexed":false,"internalType":"uint256","name":"amount","type":"uint256"}],"name":"BrdgDeposited","type":"event"},{"anonymous":false,"inputs":[{"indexed":true,"internalType":"address","name":"to","type":"address"},{"indexed":false,"internalType":"uint256","name":"amount","type":"uint256"},{"indexed":false,"internalType":"string","name":"bucket","type":"string"}],"name":"BrdgWithdrawn","type":"event"},{"anonymous":false,"inputs":[{"indexed":true,"internalType":"address","name":"from","type":"address"},{"indexed":false,"internalType":"uint256","name":"amount","type":"uint256"}],"name":"EthDeposited","type":"event"},{"anonymous":false,"inputs":[{"indexed":true,"internalType":"address","name":"to","type":"address"},{"indexed":false,"internalType":"uint256","name":"amount","type":"uint256"},{"indexed":false,"internalType":"string","name":"bucket","type":"string"}],"name":"EthWithdrawn","type":"event"},{"anonymous":false,"inputs":[{"indexed":true,"internalType":"address","name":"previousOwner","type":"address"},{"indexed":true,"internalType":"address","name":"newOwner","type":"address"}],"name":"OwnershipTransferred","type":"event"},{"inputs":[],"name":"FOUNDER_BPS","outputs":[{"internalType":"uint256","name":"","type":"uint256"}],"stateMutability":"view","type":"function"},{"inputs":[],"name":"LIQ_BPS","outputs":[{"internalType":"uint256","name":"","type":"uint256"}],"stateMutability":"view","type":"function"},{"inputs":[],"name":"OPS_BPS","outputs":[{"internalType":"uint256","name":"","type":"uint256"}],"stateMutability":"view","type":"function"},{"inputs":[],"name":"RESERVE_BPS","outputs":[{"internalType":"uint256","name":"","type":"uint256"}],"stateMutability":"view","type":"function"},{"inputs":[],"name":"brdg","outputs":[{"internalType":"contract IERC20","name":"","type":"address"}],"stateMutability":"view","type":"function"},{"inputs":[],"name":"brdgBuckets","outputs":[{"internalType":"uint256","name":"ops","type":"uint256"},{"internalType":"uint256","name":"liquidity","type":"uint256"},{"internalType":"uint256","name":"reserve","type":"uint256"},{"internalType":"uint256","name":"founder","type":"uint256"}],"stateMutability":"view","type":"function"},{"inputs":[],"name":"bucketBalances","outputs":[{"internalType":"uint256","name":"opsEth","type":"uint256"},{"internalType":"uint256","name":"liqEth","type":"uint256"},{"internalType":"uint256","name":"resEth","type":"uint256"},{"internalType":"uint256","name":"fndEth","type":"uint256"},{"internalType":"uint256","name":"opsBrdg","type":"uint256"},{"internalType":"uint256","name":"liqBrdg","type":"uint256"},{"internalType":"uint256","name":"resBrdg","type":"uint256"},{"internalType":"uint256","name":"fndBrdg","type":"uint256"}],"stateMutability":"view","type":"function"},{"inputs":[{"internalType":"uint256","name":"amount","type":"uint256"}],"name":"depositBrdg","outputs":[],"stateMutability":"nonpayable","type":"function"},{"inputs":[],"name":"ethBuckets","outputs":[{"internalType":"uint256","name":"ops","type":"uint256"},{"internalType":"uint256","name":"liquidity","type":"uint256"},{"internalType":"uint256","name":"reserve","type":"uint256"},{"internalType":"uint256","name":"founder","type":"uint256"}],"stateMutability":"view","type":"function"},{"inputs":[],"name":"owner","outputs":[{"internalType":"address","name":"","type":"address"}],"stateMutability":"view","type":"function"},{"inputs":[],"name":"renounceOwnership","outputs":[],"stateMutability":"nonpayable","type":"function"},{"inputs":[],"name":"totalBrdgDeposited","outputs":[{"internalType":"uint256","name":"","type":"uint256"}],"stateMutability":"view","type":"function"},{"inputs":[],"name":"totalEthDeposited","outputs":[{"internalType":"uint256","name":"","type":"uint256"}],"stateMutability":"view","type":"function"},{"inputs":[{"internalType":"address","name":"newOwner","type":"address"}],"name":"transferOwnership","outputs":[],"stateMutability":"nonpayable","type":"function"},{"inputs":[{"internalType":"string","name":"bucket","type":"string"},{"internalType":"address","name":"to","type":"address"},{"internalType":"uint256","name":"amount","type":"uint256"}],"name":"withdrawBrdg","outputs":[],"stateMutability":"nonpayable","type":"function"},{"inputs":[{"internalType":"string","name":"bucket","type":"string"},{"internalType":"address","name":"to","type":"address"},{"internalType":"uint256","name":"amount","type":"uint256"}],"name":"withdrawEth","outputs":[],"stateMutability":"nonpayable","type":"function"},{"stateMutability":"payable","type":"receive"}],"evm":{"bytecode":{"linkReferences":{},"object":"60a060405234801561001057600080fd5b50604051610ff0380380610ff083398101604081905261002f91610103565b338061005657604051631e4fbdf760e01b8152600060048201526024015b60405180910390fd5b61005f816100b3565b506001600160a01b0381166100a25760405162461bcd60e51b81526020600482015260096024820152687a65726f206272646760b81b604482015260640161004d565b6001600160a01b0316608052610133565b600080546001600160a01b038381166001600160a01b0319831681178455604051919092169283917f8be0079c531659141344cd1fd0a4f28419497f9722a3daafe3b4186f6b6457e09190a35050565b60006020828403121561011557600080fd5b81516001600160a01b038116811461012c57600080fd5b9392505050565b608051610e9461015c6000396000818161022c0152818161048b01526107ad0152610e946000f3fe6080604052600436106100f75760003560e01c80638da5cb5b1161008a578063e41dc9f811610059578063e41dc9f814610330578063eae6754a14610346578063edc663681461035c578063f2fde38b1461037f57600080fd5b80638da5cb5b1461027c578063b4a911e11461029a578063b4f20e45146102ba578063c322798b146102d057600080fd5b806358af3947116100c657806358af3947146101c2578063715018a61461020557806377e27f4c1461021a57806389f1fb7f1461026657600080fd5b80631429490d14610141578063351afe831461016357806346d063351461018c57806355aaf082146101ac57600080fd5b3661013c576101053461039f565b60405134815233907f66ff7c8f71ccc7c36152a41920d0d3b46ef3034359f76aa1498ed4478c204b5c9060200160405180910390a2005b600080fd5b34801561014d57600080fd5b5061016161015c366004610cbd565b61047e565b005b34801561016f57600080fd5b506101796109c481565b6040519081526020015b60405180910390f35b34801561019857600080fd5b506101616101a7366004610cf2565b6105c7565b3480156101b857600080fd5b50610179600a5481565b3480156101ce57600080fd5b506001546002546003546004546101e59392919084565b604080519485526020850193909352918301526060820152608001610183565b34801561021157600080fd5b50610161610820565b34801561022657600080fd5b5061024e7f000000000000000000000000000000000000000000000000000000000000000081565b6040516001600160a01b039091168152602001610183565b34801561027257600080fd5b50610179610fa081565b34801561028857600080fd5b506000546001600160a01b031661024e565b3480156102a657600080fd5b506101616102b5366004610cf2565b610834565b3480156102c657600080fd5b506101796105dc81565b3480156102dc57600080fd5b50600154600254600354600454600554600654600754600854604080519889526020890197909752958701949094526060860192909252608085015260a084015260c083015260e082015261010001610183565b34801561033c57600080fd5b506101796107d081565b34801561035257600080fd5b5061017960095481565b34801561036857600080fd5b506005546006546007546008546101e59392919084565b34801561038b57600080fd5b5061016161039a366004610d7b565b610ab4565b6127106103ae610fa083610db3565b6103b89190610dd0565b600180546000906103ca908490610df2565b9091555061271090506103df6109c483610db3565b6103e99190610dd0565b600280546000906103fb908490610df2565b9091555061271090506104106107d083610db3565b61041a9190610dd0565b6003805460009061042c908490610df2565b9091555061271090506104416105dc83610db3565b61044b9190610dd0565b6004805460009061045d908490610df2565b9250508190555080600960008282546104769190610df2565b909155505050565b6104b36001600160a01b037f000000000000000000000000000000000000000000000000000000000000000016333084610af2565b6127106104c2610fa083610db3565b6104cc9190610dd0565b600580546000906104de908490610df2565b9091555061271090506104f36109c483610db3565b6104fd9190610dd0565b6006805460009061050f908490610df2565b9091555061271090506105246107d083610db3565b61052e9190610dd0565b60078054600090610540908490610df2565b9091555061271090506105556105dc83610db3565b61055f9190610dd0565b60088054600090610571908490610df2565b9250508190555080600a600082825461058a9190610df2565b909155505060405181815233907f64881061bf418a4dc92b1d162dd541878fda7966be4138701fdd022b1d6678919060200160405180910390a250565b6105cf610b2e565b6001600160a01b0382166106145760405162461bcd60e51b81526020600482015260076024820152667a65726f20746f60c81b60448201526064015b60405180910390fd5b60008484604051610626929190610e05565b604051809103902090507f648c1041397070b6773cd376c40d6c1919cba81c9174b0a822ac0f4174eaf13181036106865760055482111561066657600080fd5b816005600001600082825461067b9190610e15565b909155506107a09050565b7fbb7d9f8cddc6f064ba72d0e3c1e53eb67867dd8506fa4f5d61c86189caca8ee581036106d1576006548211156106bc57600080fd5b816005600101600082825461067b9190610e15565b7ff712c2fa585715e22c7fcc833629ce4482ad96496ecd08f3a14847183c4ef4ee810361071c5760075482111561070757600080fd5b816005600201600082825461067b9190610e15565b7fcaa6459ec81872a8250a28a4b93bd1b544f7a69ba2fd6ba05ca9b676ef5b1a9c81036107675760085482111561075257600080fd5b816005600301600082825461067b9190610e15565b60405162461bcd60e51b815260206004820152600e60248201526d1a5b9d985b1a5908189d58dad95d60921b604482015260640161060b565b6107d46001600160a01b037f0000000000000000000000000000000000000000000000000000000000000000168484610b5b565b826001600160a01b03167f01e36e20d916d8d1442e47266a3144cca486c9d8a992f90cd48cdcb3270d3dad83878760405161081193929190610e28565b60405180910390a25050505050565b610828610b2e565b6108326000610b95565b565b61083c610b2e565b6001600160a01b03821661087c5760405162461bcd60e51b81526020600482015260076024820152667a65726f20746f60c81b604482015260640161060b565b6000848460405161088e929190610e05565b604051809103902090507f648c1041397070b6773cd376c40d6c1919cba81c9174b0a822ac0f4174eaf13181036108ee576001548211156108ce57600080fd5b81600160000160008282546108e39190610e15565b909155506109ce9050565b7fbb7d9f8cddc6f064ba72d0e3c1e53eb67867dd8506fa4f5d61c86189caca8ee581036109385760025482111561092457600080fd5b816001800160008282546108e39190610e15565b7ff712c2fa585715e22c7fcc833629ce4482ad96496ecd08f3a14847183c4ef4ee81036109835760035482111561096e57600080fd5b81600160020160008282546108e39190610e15565b7fcaa6459ec81872a8250a28a4b93bd1b544f7a69ba2fd6ba05ca9b676ef5b1a9c8103610767576004548211156109b957600080fd5b81600160030160008282546108e39190610e15565b6000836001600160a01b03168360405160006040518083038185875af1925050503d8060008114610a1b576040519150601f19603f3d011682016040523d82523d6000602084013e610a20565b606091505b5050905080610a675760405162461bcd60e51b8152602060048201526013602482015272195d1a081d1c985b9cd9995c8819985a5b1959606a1b604482015260640161060b565b836001600160a01b03167fb02652db2e92cbe44ca563f83c993ca860d1376a6f11a6de22344638fe23cd77848888604051610aa493929190610e28565b60405180910390a2505050505050565b610abc610b2e565b6001600160a01b038116610ae657604051631e4fbdf760e01b81526000600482015260240161060b565b610aef81610b95565b50565b610b00848484846001610be5565b610b2857604051635274afe760e01b81526001600160a01b038516600482015260240161060b565b50505050565b6000546001600160a01b031633146108325760405163118cdaa760e01b815233600482015260240161060b565b610b688383836001610c57565b610b9057604051635274afe760e01b81526001600160a01b038416600482015260240161060b565b505050565b600080546001600160a01b038381166001600160a01b0319831681178455604051919092169283917f8be0079c531659141344cd1fd0a4f28419497f9722a3daafe3b4186f6b6457e09190a35050565b6040516323b872dd60e01b60008181526001600160a01b038781166004528616602452604485905291602083606481808c5af192506001600051148316610c45578383151615610c38573d6000823e3d81fd5b6000883b113d1516831692505b60405250600060605295945050505050565b60405163a9059cbb60e01b60008181526001600160a01b038616600452602485905291602083604481808b5af192506001600051148316610cb1578383151615610ca4573d6000823e3d81fd5b6000873b113d1516831692505b60405250949350505050565b600060208284031215610ccf57600080fd5b5035919050565b80356001600160a01b0381168114610ced57600080fd5b919050565b60008060008060608587031215610d0857600080fd5b843567ffffffffffffffff80821115610d2057600080fd5b818701915087601f830112610d3457600080fd5b813581811115610d4357600080fd5b886020828501011115610d5557600080fd5b602092830196509450610d6b9187019050610cd6565b9396929550929360400135925050565b600060208284031215610d8d57600080fd5b610d9682610cd6565b9392505050565b634e487b7160e01b600052601160045260246000fd5b8082028115828204841417610dca57610dca610d9d565b92915050565b600082610ded57634e487b7160e01b600052601260045260246000fd5b500490565b80820180821115610dca57610dca610d9d565b8183823760009101908152919050565b81810381811115610dca57610dca610d9d565b83815260406020820152816040820152818360608301376000818301606090810191909152601f909201601f191601019291505056fea26469706673582212202097d562c0ff2e0e734e08429aa7e09169dbbe062a57e517d90e7c0e0f5df30a64736f6c63430008140033","opcodes":"PUSH1 0xA0 PUSH1 0x40 MSTORE CALLVALUE DUP1 ISZERO PUSH2 0x10 JUMPI PUSH1 0x0 DUP1 REVERT JUMPDEST POP PUSH1 0x40 MLOAD PUSH2 0xFF0 CODESIZE SUB DUP1 PUSH2 0xFF0 DUP4 CODECOPY DUP2 ADD PUSH1 0x40 DUP2 SWAP1 MSTORE PUSH2 0x2F SWAP2 PUSH2 0x103 JUMP JUMPDEST CALLER DUP1 PUSH2 0x56 JUMPI PUSH1 0x40 MLOAD PUSH4 0x1E4FBDF7 PUSH1 0xE0 SHL DUP2 MSTORE PUSH1 0x0 PUSH1 0x4 DUP3 ADD MSTORE PUSH1 0x24 ADD JUMPDEST PUSH1 0x40 MLOAD DUP1 SWAP2 SUB SWAP1 REVERT JUMPDEST PUSH2 0x5F DUP2 PUSH2 0xB3 JUMP JUMPDEST POP PUSH1 0x1 PUSH1 0x1 PUSH1 0xA0 SHL SUB DUP2 AND PUSH2 0xA2 JUMPI PUSH1 0x40 MLOAD PUSH3 0x461BCD PUSH1 0xE5 SHL DUP2 MSTORE PUSH1 0x20 PUSH1 0x4 DUP3 ADD MSTORE PUSH1 0x9 PUSH1 0x24 DUP3 ADD MSTORE PUSH9 0x7A65726F2062726467 PUSH1 0xB8 SHL PUSH1 0x44 DUP3 ADD MSTORE PUSH1 0x64 ADD PUSH2 0x4D JUMP JUMPDEST PUSH1 0x1 PUSH1 0x1 PUSH1 0xA0 SHL SUB AND PUSH1 0x80 MSTORE PUSH2 0x133 JUMP JUMPDEST PUSH1 0x0 DUP1 SLOAD PUSH1 0x1 PUSH1 0x1 PUSH1 0xA0 SHL SUB DUP4 DUP2 AND PUSH1 0x1 PUSH1 0x1 PUSH1 0xA0 SHL SUB NOT DUP4 AND DUP2 OR DUP5 SSTORE PUSH1 0x40 MLOAD SWAP2 SWAP1 SWAP3 AND SWAP3 DUP4 SWAP2 PUSH32 0x8BE0079C531659141344CD1FD0A4F28419497F9722A3DAAFE3B4186F6B6457E0 SWAP2 SWAP1 LOG3 POP POP JUMP JUMPDEST PUSH1 0x0 PUSH1 0x20 DUP3 DUP5 SUB SLT ISZERO PUSH2 0x115 JUMPI PUSH1 0x0 DUP1 REVERT JUMPDEST DUP2 MLOAD PUSH1 0x1 PUSH1 0x1 PUSH1 0xA0 SHL SUB DUP2 AND DUP2 EQ PUSH2 0x12C JUMPI PUSH1 0x0 DUP1 REVERT JUMPDEST SWAP4 SWAP3 POP POP POP JUMP JUMPDEST PUSH1 0x80 MLOAD PUSH2 0xE94 PUSH2 0x15C PUSH1 0x0 CODECOPY PUSH1 0x0 DUP2 DUP2 PUSH2 0x22C ADD MSTORE DUP2 DUP2 PUSH2 0x48B ADD MSTORE PUSH2 0x7AD ADD MSTORE PUSH2 0xE94 PUSH1 0x0 RETURN INVALID PUSH1 0x80 PUSH1 0x40 MSTORE PUSH1 0x4 CALLDATASIZE LT PUSH2 0xF7 JUMPI PUSH1 0x0 CALLDATALOAD PUSH1 0xE0 SHR DUP1 PUSH4 0x8DA5CB5B GT PUSH2 0x8A JUMPI DUP1 PUSH4 0xE41DC9F8 GT PUSH2 0x59 JUMPI DUP1 PUSH4 0xE41DC9F8 EQ PUSH2 0x330 JUMPI DUP1 PUSH4 0xEAE6754A EQ PUSH2 0x346 JUMPI DUP1 PUSH4 0xEDC66368 EQ PUSH2 0x35C JUMPI DUP1 PUSH4 0xF2FDE38B EQ PUSH2 0x37F JUMPI PUSH1 0x0 DUP1 REVERT JUMPDEST DUP1 PUSH4 0x8DA5CB5B EQ PUSH2 0x27C JUMPI DUP1 PUSH4 0xB4A911E1 EQ PUSH2 0x29A JUMPI DUP1 PUSH4 0xB4F20E45 EQ PUSH2 0x2BA JUMPI DUP1 PUSH4 0xC322798B EQ PUSH2 0x2D0 JUMPI PUSH1 0x0 DUP1 REVERT JUMPDEST DUP1 PUSH4 0x58AF3947 GT PUSH2 0xC6 JUMPI DUP1 PUSH4 0x58AF3947 EQ PUSH2 0x1C2 JUMPI DUP1 PUSH4 0x715018A6 EQ PUSH2 0x205 JUMPI DUP1 PUSH4 0x77E27F4C EQ PUSH2 0x21A JUMPI DUP1 PUSH4 0x89F1FB7F EQ PUSH2 0x266 JUMPI PUSH1 0x0 DUP1 REVERT JUMPDEST DUP1 PUSH4 0x1429490D EQ PUSH2 0x141 JUMPI DUP1 PUSH4 0x351AFE83 EQ PUSH2 0x163 JUMPI DUP1 PUSH4 0x46D06335 EQ PUSH2 0x18C JUMPI DUP1 PUSH4 0x55AAF082 EQ PUSH2 0x1AC JUMPI PUSH1 0x0 DUP1 REVERT JUMPDEST CALLDATASIZE PUSH2 0x13C JUMPI PUSH2 0x105 CALLVALUE PUSH2 0x39F JUMP JUMPDEST PUSH1 0x40 MLOAD CALLVALUE DUP2 MSTORE CALLER SWAP1 PUSH32 0x66FF7C8F71CCC7C36152A41920D0D3B46EF3034359F76AA1498ED4478C204B5C SWAP1 PUSH1 0x20 ADD PUSH1 0x40 MLOAD DUP1 SWAP2 SUB SWAP1 LOG2 STOP JUMPDEST PUSH1 0x0 DUP1 REVERT JUMPDEST CALLVALUE DUP1 ISZERO PUSH2 0x14D JUMPI PUSH1 0x0 DUP1 REVERT JUMPDEST POP PUSH2 0x161 PUSH2 0x15C CALLDATASIZE PUSH1 0x4 PUSH2 0xCBD JUMP JUMPDEST PUSH2 0x47E JUMP JUMPDEST STOP JUMPDEST CALLVALUE DUP1 ISZERO PUSH2 0x16F JUMPI PUSH1 0x0 DUP1 REVERT JUMPDEST POP PUSH2 0x179 PUSH2 0x9C4 DUP2 JUMP JUMPDEST PUSH1 0x40 MLOAD SWAP1 DUP2 MSTORE PUSH1 0x20 ADD JUMPDEST PUSH1 0x40 MLOAD DUP1 SWAP2 SUB SWAP1 RETURN JUMPDEST CALLVALUE DUP1 ISZERO PUSH2 0x198 JUMPI PUSH1 0x0 DUP1 REVERT JUMPDEST POP PUSH2 0x161 PUSH2 0x1A7 CALLDATASIZE PUSH1 0x4 PUSH2 0xCF2 JUMP JUMPDEST PUSH2 0x5C7 JUMP JUMPDEST CALLVALUE DUP1 ISZERO PUSH2 0x1B8 JUMPI PUSH1 0x0 DUP1 REVERT JUMPDEST POP PUSH2 0x179 PUSH1 0xA SLOAD DUP2 JUMP JUMPDEST CALLVALUE DUP1 ISZERO PUSH2 0x1CE JUMPI PUSH1 0x0 DUP1 REVERT JUMPDEST POP PUSH1 0x1 SLOAD PUSH1 0x2 SLOAD PUSH1 0x3 SLOAD PUSH1 0x4 SLOAD PUSH2 0x1E5 SWAP4 SWAP3 SWAP2 SWAP1 DUP5 JUMP JUMPDEST PUSH1 0x40 DUP1 MLOAD SWAP5 DUP6 MSTORE PUSH1 0x20 DUP6 ADD SWAP4 SWAP1 SWAP4 MSTORE SWAP2 DUP4 ADD MSTORE PUSH1 0x60 DUP3 ADD MSTORE PUSH1 0x80 ADD PUSH2 0x183 JUMP JUMPDEST CALLVALUE DUP1 ISZERO PUSH2 0x211 JUMPI PUSH1 0x0 DUP1 REVERT JUMPDEST POP PUSH2 0x161 PUSH2 0x820 JUMP JUMPDEST CALLVALUE DUP1 ISZERO PUSH2 0x226 JUMPI PUSH1 0x0 DUP1 REVERT JUMPDEST POP PUSH2 0x24E PUSH32 0x0 DUP2 JUMP JUMPDEST PUSH1 0x40 MLOAD PUSH1 0x1 PUSH1 0x1 PUSH1 0xA0 SHL SUB SWAP1 SWAP2 AND DUP2 MSTORE PUSH1 0x20 ADD PUSH2 0x183 JUMP JUMPDEST CALLVALUE DUP1 ISZERO PUSH2 0x272 JUMPI PUSH1 0x0 DUP1 REVERT JUMPDEST POP PUSH2 0x179 PUSH2 0xFA0 DUP2 JUMP JUMPDEST CALLVALUE DUP1 ISZERO PUSH2 0x288 JUMPI PUSH1 0x0 DUP1 REVERT JUMPDEST POP PUSH1 0x0 SLOAD PUSH1 0x1 PUSH1 0x1 PUSH1 0xA0 SHL SUB AND PUSH2 0x24E JUMP JUMPDEST CALLVALUE DUP1 ISZERO PUSH2 0x2A6 JUMPI PUSH1 0x0 DUP1 REVERT JUMPDEST POP PUSH2 0x161 PUSH2 0x2B5 CALLDATASIZE PUSH1 0x4 PUSH2 0xCF2 JUMP JUMPDEST PUSH2 0x834 JUMP JUMPDEST CALLVALUE DUP1 ISZERO PUSH2 0x2C6 JUMPI PUSH1 0x0 DUP1 REVERT JUMPDEST POP PUSH2 0x179 PUSH2 0x5DC DUP2 JUMP JUMPDEST CALLVALUE DUP1 ISZERO PUSH2 0x2DC JUMPI PUSH1 0x0 DUP1 REVERT JUMPDEST POP PUSH1 0x1 SLOAD PUSH1 0x2 SLOAD PUSH1 0x3 SLOAD PUSH1 0x4 SLOAD PUSH1 0x5 SLOAD PUSH1 0x6 SLOAD PUSH1 0x7 SLOAD PUSH1 0x8 SLOAD PUSH1 0x40 DUP1 MLOAD SWAP9 DUP10 MSTORE PUSH1 0x20 DUP10 ADD SWAP8 SWAP1 SWAP8 MSTORE SWAP6 DUP8 ADD SWAP5 SWAP1 SWAP5 MSTORE PUSH1 0x60 DUP7 ADD SWAP3 SWAP1 SWAP3 MSTORE PUSH1 0x80 DUP6 ADD MSTORE PUSH1 0xA0 DUP5 ADD MSTORE PUSH1 0xC0 DUP4 ADD MSTORE PUSH1 0xE0 DUP3 ADD MSTORE PUSH2 0x100 ADD PUSH2 0x183 JUMP JUMPDEST CALLVALUE DUP1 ISZERO PUSH2 0x33C JUMPI PUSH1 0x0 DUP1 REVERT JUMPDEST POP PUSH2 0x179 PUSH2 0x7D0 DUP2 JUMP JUMPDEST CALLVALUE DUP1 ISZERO PUSH2 0x352 JUMPI PUSH1 0x0 DUP1 REVERT JUMPDEST POP PUSH2 0x179 PUSH1 0x9 SLOAD DUP2 JUMP JUMPDEST CALLVALUE DUP1 ISZERO PUSH2 0x368 JUMPI PUSH1 0x0 DUP1 REVERT JUMPDEST POP PUSH1 0x5 SLOAD PUSH1 0x6 SLOAD PUSH1 0x7 SLOAD PUSH1 0x8 SLOAD PUSH2 0x1E5 SWAP4 SWAP3 SWAP2 SWAP1 DUP5 JUMP JUMPDEST CALLVALUE DUP1 ISZERO PUSH2 0x38B JUMPI PUSH1 0x0 DUP1 REVERT JUMPDEST POP PUSH2 0x161 PUSH2 0x39A CALLDATASIZE PUSH1 0x4 PUSH2 0xD7B JUMP JUMPDEST PUSH2 0xAB4 JUMP JUMPDEST PUSH2 0x2710 PUSH2 0x3AE PUSH2 0xFA0 DUP4 PUSH2 0xDB3 JUMP JUMPDEST PUSH2 0x3B8 SWAP2 SWAP1 PUSH2 0xDD0 JUMP JUMPDEST PUSH1 0x1 DUP1 SLOAD PUSH1 0x0 SWAP1 PUSH2 0x3CA SWAP1 DUP5 SWAP1 PUSH2 0xDF2 JUMP JUMPDEST SWAP1 SWAP2 SSTORE POP PUSH2 0x2710 SWAP1 POP PUSH2 0x3DF PUSH2 0x9C4 DUP4 PUSH2 0xDB3 JUMP JUMPDEST PUSH2 0x3E9 SWAP2 SWAP1 PUSH2 0xDD0 JUMP JUMPDEST PUSH1 0x2 DUP1 SLOAD PUSH1 0x0 SWAP1 PUSH2 0x3FB SWAP1 DUP5 SWAP1 PUSH2 0xDF2 JUMP JUMPDEST SWAP1 SWAP2 SSTORE POP PUSH2 0x2710 SWAP1 POP PUSH2 0x410 PUSH2 0x7D0 DUP4 PUSH2 0xDB3 JUMP JUMPDEST PUSH2 0x41A SWAP2 SWAP1 PUSH2 0xDD0 JUMP JUMPDEST PUSH1 0x3 DUP1 SLOAD PUSH1 0x0 SWAP1 PUSH2 0x42C SWAP1 DUP5 SWAP1 PUSH2 0xDF2 JUMP JUMPDEST SWAP1 SWAP2 SSTORE POP PUSH2 0x2710 SWAP1 POP PUSH2 0x441 PUSH2 0x5DC DUP4 PUSH2 0xDB3 JUMP JUMPDEST PUSH2 0x44B SWAP2 SWAP1 PUSH2 0xDD0 JUMP JUMPDEST PUSH1 0x4 DUP1 SLOAD PUSH1 0x0 SWAP1 PUSH2 0x45D SWAP1 DUP5 SWAP1 PUSH2 0xDF2 JUMP JUMPDEST SWAP3 POP POP DUP2 SWAP1 SSTORE POP DUP1 PUSH1 0x9 PUSH1 0x0 DUP3 DUP3 SLOAD PUSH2 0x476 SWAP2 SWAP1 PUSH2 0xDF2 JUMP JUMPDEST SWAP1 SWAP2 SSTORE POP POP POP JUMP JUMPDEST PUSH2 0x4B3 PUSH1 0x1 PUSH1 0x1 PUSH1 0xA0 SHL SUB PUSH32 0x0 AND CALLER ADDRESS DUP5 PUSH2 0xAF2 JUMP JUMPDEST PUSH2 0x2710 PUSH2 0x4C2 PUSH2 0xFA0 DUP4 PUSH2 0xDB3 JUMP JUMPDEST PUSH2 0x4CC SWAP2 SWAP1 PUSH2 0xDD0 JUMP JUMPDEST PUSH1 0x5 DUP1 SLOAD PUSH1 0x0 SWAP1 PUSH2 0x4DE SWAP1 DUP5 SWAP1 PUSH2 0xDF2 JUMP JUMPDEST SWAP1 SWAP2 SSTORE POP PUSH2 0x2710 SWAP1 POP PUSH2 0x4F3 PUSH2 0x9C4 DUP4 PUSH2 0xDB3 JUMP JUMPDEST PUSH2 0x4FD SWAP2 SWAP1 PUSH2 0xDD0 JUMP JUMPDEST PUSH1 0x6 DUP1 SLOAD PUSH1 0x0 SWAP1 PUSH2 0x50F SWAP1 DUP5 SWAP1 PUSH2 0xDF2 JUMP JUMPDEST SWAP1 SWAP2 SSTORE POP PUSH2 0x2710 SWAP1 POP PUSH2 0x524 PUSH2 0x7D0 DUP4 PUSH2 0xDB3 JUMP JUMPDEST PUSH2 0x52E SWAP2 SWAP1 PUSH2 0xDD0 JUMP JUMPDEST PUSH1 0x7 DUP1 SLOAD PUSH1 0x0 SWAP1 PUSH2 0x540 SWAP1 DUP5 SWAP1 PUSH2 0xDF2 JUMP JUMPDEST SWAP1 SWAP2 SSTORE POP PUSH2 0x2710 SWAP1 POP PUSH2 0x555 PUSH2 0x5DC DUP4 PUSH2 0xDB3 JUMP JUMPDEST PUSH2 0x55F SWAP2 SWAP1 PUSH2 0xDD0 JUMP JUMPDEST PUSH1 0x8 DUP1 SLOAD PUSH1 0x0 SWAP1 PUSH2 0x571 SWAP1 DUP5 SWAP1 PUSH2 0xDF2 JUMP JUMPDEST SWAP3 POP POP DUP2 SWAP1 SSTORE POP DUP1 PUSH1 0xA PUSH1 0x0 DUP3 DUP3 SLOAD PUSH2 0x58A SWAP2 SWAP1 PUSH2 0xDF2 JUMP JUMPDEST SWAP1 SWAP2 SSTORE POP POP PUSH1 0x40 MLOAD DUP2 DUP2 MSTORE CALLER SWAP1 PUSH32 0x64881061BF418A4DC92B1D162DD541878FDA7966BE4138701FDD022B1D667891 SWAP1 PUSH1 0x20 ADD PUSH1 0x40 MLOAD DUP1 SWAP2 SUB SWAP1 LOG2 POP JUMP JUMPDEST PUSH2 0x5CF PUSH2 0xB2E JUMP JUMPDEST PUSH1 0x1 PUSH1 0x1 PUSH1 0xA0 SHL SUB DUP3 AND PUSH2 0x614 JUMPI PUSH1 0x40 MLOAD PUSH3 0x461BCD PUSH1 0xE5 SHL DUP2 MSTORE PUSH1 0x20 PUSH1 0x4 DUP3 ADD MSTORE PUSH1 0x7 PUSH1 0x24 DUP3 ADD MSTORE PUSH7 0x7A65726F20746F PUSH1 0xC8 SHL PUSH1 0x44 DUP3 ADD MSTORE PUSH1 0x64 ADD JUMPDEST PUSH1 0x40 MLOAD DUP1 SWAP2 SUB SWAP1 REVERT JUMPDEST PUSH1 0x0 DUP5 DUP5 PUSH1 0x40 MLOAD PUSH2 0x626 SWAP3 SWAP2 SWAP1 PUSH2 0xE05 JUMP JUMPDEST PUSH1 0x40 MLOAD DUP1 SWAP2 SUB SWAP1 KECCAK256 SWAP1 POP PUSH32 0x648C1041397070B6773CD376C40D6C1919CBA81C9174B0A822AC0F4174EAF131 DUP2 SUB PUSH2 0x686 JUMPI PUSH1 0x5 SLOAD DUP3 GT ISZERO PUSH2 0x666 JUMPI PUSH1 0x0 DUP1 REVERT JUMPDEST DUP2 PUSH1 0x5 PUSH1 0x0 ADD PUSH1 0x0 DUP3 DUP3 SLOAD PUSH2 0x67B SWAP2 SWAP1 PUSH2 0xE15 JUMP JUMPDEST SWAP1 SWAP2 SSTORE POP PUSH2 0x7A0 SWAP1 POP JUMP JUMPDEST PUSH32 0xBB7D9F8CDDC6F064BA72D0E3C1E53EB67867DD8506FA4F5D61C86189CACA8EE5 DUP2 SUB PUSH2 0x6D1 JUMPI PUSH1 0x6 SLOAD DUP3 GT ISZERO PUSH2 0x6BC JUMPI PUSH1 0x0 DUP1 REVERT JUMPDEST DUP2 PUSH1 0x5 PUSH1 0x1 ADD PUSH1 0x0 DUP3 DUP3 SLOAD PUSH2 0x67B SWAP2 SWAP1 PUSH2 0xE15 JUMP JUMPDEST PUSH32 0xF712C2FA585715E22C7FCC833629CE4482AD96496ECD08F3A14847183C4EF4EE DUP2 SUB PUSH2 0x71C JUMPI PUSH1 0x7 SLOAD DUP3 GT ISZERO PUSH2 0x707 JUMPI PUSH1 0x0 DUP1 REVERT JUMPDEST DUP2 PUSH1 0x5 PUSH1 0x2 ADD PUSH1 0x0 DUP3 DUP3 SLOAD PUSH2 0x67B SWAP2 SWAP1 PUSH2 0xE15 JUMP JUMPDEST PUSH32 0xCAA6459EC81872A8250A28A4B93BD1B544F7A69BA2FD6BA05CA9B676EF5B1A9C DUP2 SUB PUSH2 0x767 JUMPI PUSH1 0x8 SLOAD DUP3 GT ISZERO PUSH2 0x752 JUMPI PUSH1 0x0 DUP1 REVERT JUMPDEST DUP2 PUSH1 0x5 PUSH1 0x3 ADD PUSH1 0x0 DUP3 DUP3 SLOAD PUSH2 0x67B SWAP2 SWAP1 PUSH2 0xE15 JUMP JUMPDEST PUSH1 0x40 MLOAD PUSH3 0x461BCD PUSH1 0xE5 SHL DUP2 MSTORE PUSH1 0x20 PUSH1 0x4 DUP3 ADD MSTORE PUSH1 0xE PUSH1 0x24 DUP3 ADD MSTORE PUSH14 0x1A5B9D985B1A5908189D58DAD95D PUSH1 0x92 SHL PUSH1 0x44 DUP3 ADD MSTORE PUSH1 0x64 ADD PUSH2 0x60B JUMP JUMPDEST PUSH2 0x7D4 PUSH1 0x1 PUSH1 0x1 PUSH1 0xA0 SHL SUB PUSH32 0x0 AND DUP5 DUP5 PUSH2 0xB5B JUMP JUMPDEST DUP3 PUSH1 0x1 PUSH1 0x1 PUSH1 0xA0 SHL SUB AND PUSH32 0x1E36E20D916D8D1442E47266A3144CCA486C9D8A992F90CD48CDCB3270D3DAD DUP4 DUP8 DUP8 PUSH1 0x40 MLOAD PUSH2 0x811 SWAP4 SWAP3 SWAP2 SWAP1 PUSH2 0xE28 JUMP JUMPDEST PUSH1 0x40 MLOAD DUP1 SWAP2 SUB SWAP1 LOG2 POP POP POP POP POP JUMP JUMPDEST PUSH2 0x828 PUSH2 0xB2E JUMP JUMPDEST PUSH2 0x832 PUSH1 0x0 PUSH2 0xB95 JUMP JUMPDEST JUMP JUMPDEST PUSH2 0x83C PUSH2 0xB2E JUMP JUMPDEST PUSH1 0x1 PUSH1 0x1 PUSH1 0xA0 SHL SUB DUP3 AND PUSH2 0x87C JUMPI PUSH1 0x40 MLOAD PUSH3 0x461BCD PUSH1 0xE5 SHL DUP2 MSTORE PUSH1 0x20 PUSH1 0x4 DUP3 ADD MSTORE PUSH1 0x7 PUSH1 0x24 DUP3 ADD MSTORE PUSH7 0x7A65726F20746F PUSH1 0xC8 SHL PUSH1 0x44 DUP3 ADD MSTORE PUSH1 0x64 ADD PUSH2 0x60B JUMP JUMPDEST PUSH1 0x0 DUP5 DUP5 PUSH1 0x40 MLOAD PUSH2 0x88E SWAP3 SWAP2 SWAP1 PUSH2 0xE05 JUMP JUMPDEST PUSH1 0x40 MLOAD DUP1 SWAP2 SUB SWAP1 KECCAK256 SWAP1 POP PUSH32 0x648C1041397070B6773CD376C40D6C1919CBA81C9174B0A822AC0F4174EAF131 DUP2 SUB PUSH2 0x8EE JUMPI PUSH1 0x1 SLOAD DUP3 GT ISZERO PUSH2 0x8CE JUMPI PUSH1 0x0 DUP1 REVERT JUMPDEST DUP2 PUSH1 0x1 PUSH1 0x0 ADD PUSH1 0x0 DUP3 DUP3 SLOAD PUSH2 0x8E3 SWAP2 SWAP1 PUSH2 0xE15 JUMP JUMPDEST SWAP1 SWAP2 SSTORE POP PUSH2 0x9CE SWAP1 POP JUMP JUMPDEST PUSH32 0xBB7D9F8CDDC6F064BA72D0E3C1E53EB67867DD8506FA4F5D61C86189CACA8EE5 DUP2 SUB PUSH2 0x938 JUMPI PUSH1 0x2 SLOAD DUP3 GT ISZERO PUSH2 0x924 JUMPI PUSH1 0x0 DUP1 REVERT JUMPDEST DUP2 PUSH1 0x1 DUP1 ADD PUSH1 0x0 DUP3 DUP3 SLOAD PUSH2 0x8E3 SWAP2 SWAP1 PUSH2 0xE15 JUMP JUMPDEST PUSH32 0xF712C2FA585715E22C7FCC833629CE4482AD96496ECD08F3A14847183C4EF4EE DUP2 SUB PUSH2 0x983 JUMPI PUSH1 0x3 SLOAD DUP3 GT ISZERO PUSH2 0x96E JUMPI PUSH1 0x0 DUP1 REVERT JUMPDEST DUP2 PUSH1 0x1 PUSH1 0x2 ADD PUSH1 0x0 DUP3 DUP3 SLOAD PUSH2 0x8E3 SWAP2 SWAP1 PUSH2 0xE15 JUMP JUMPDEST PUSH32 0xCAA6459EC81872A8250A28A4B93BD1B544F7A69BA2FD6BA05CA9B676EF5B1A9C DUP2 SUB PUSH2 0x767 JUMPI PUSH1 0x4 SLOAD DUP3 GT ISZERO PUSH2 0x9B9 JUMPI PUSH1 0x0 DUP1 REVERT JUMPDEST DUP2 PUSH1 0x1 PUSH1 0x3 ADD PUSH1 0x0 DUP3 DUP3 SLOAD PUSH2 0x8E3 SWAP2 SWAP1 PUSH2 0xE15 JUMP JUMPDEST PUSH1 0x0 DUP4 PUSH1 0x1 PUSH1 0x1 PUSH1 0xA0 SHL SUB AND DUP4 PUSH1 0x40 MLOAD PUSH1 0x0 PUSH1 0x40 MLOAD DUP1 DUP4 SUB DUP2 DUP6 DUP8 GAS CALL SWAP3 POP POP POP RETURNDATASIZE DUP1 PUSH1 0x0 DUP2 EQ PUSH2 0xA1B JUMPI PUSH1 0x40 MLOAD SWAP2 POP PUSH1 0x1F NOT PUSH1 0x3F RETURNDATASIZE ADD AND DUP3 ADD PUSH1 0x40 MSTORE RETURNDATASIZE DUP3 MSTORE RETURNDATASIZE PUSH1 0x0 PUSH1 0x20 DUP5 ADD RETURNDATACOPY PUSH2 0xA20 JUMP JUMPDEST PUSH1 0x60 SWAP2 POP JUMPDEST POP POP SWAP1 POP DUP1 PUSH2 0xA67 JUMPI PUSH1 0x40 MLOAD PUSH3 0x461BCD PUSH1 0xE5 SHL DUP2 MSTORE PUSH1 0x20 PUSH1 0x4 DUP3 ADD MSTORE PUSH1 0x13 PUSH1 0x24 DUP3 ADD MSTORE PUSH19 0x195D1A081D1C985B9CD9995C8819985A5B1959 PUSH1 0x6A SHL PUSH1 0x44 DUP3 ADD MSTORE PUSH1 0x64 ADD PUSH2 0x60B JUMP JUMPDEST DUP4 PUSH1 0x1 PUSH1 0x1 PUSH1 0xA0 SHL SUB AND PUSH32 0xB02652DB2E92CBE44CA563F83C993CA860D1376A6F11A6DE22344638FE23CD77 DUP5 DUP9 DUP9 PUSH1 0x40 MLOAD PUSH2 0xAA4 SWAP4 SWAP3 SWAP2 SWAP1 PUSH2 0xE28 JUMP JUMPDEST PUSH1 0x40 MLOAD DUP1 SWAP2 SUB SWAP1 LOG2 POP POP POP POP POP POP JUMP JUMPDEST PUSH2 0xABC PUSH2 0xB2E JUMP JUMPDEST PUSH1 0x1 PUSH1 0x1 PUSH1 0xA0 SHL SUB DUP2 AND PUSH2 0xAE6 JUMPI PUSH1 0x40 MLOAD PUSH4 0x1E4FBDF7 PUSH1 0xE0 SHL DUP2 MSTORE PUSH1 0x0 PUSH1 0x4 DUP3 ADD MSTORE PUSH1 0x24 ADD PUSH2 0x60B JUMP JUMPDEST PUSH2 0xAEF DUP2 PUSH2 0xB95 JUMP JUMPDEST POP JUMP JUMPDEST PUSH2 0xB00 DUP5 DUP5 DUP5 DUP5 PUSH1 0x1 PUSH2 0xBE5 JUMP JUMPDEST PUSH2 0xB28 JUMPI PUSH1 0x40 MLOAD PUSH4 0x5274AFE7 PUSH1 0xE0 SHL DUP2 MSTORE PUSH1 0x1 PUSH1 0x1 PUSH1 0xA0 SHL SUB DUP6 AND PUSH1 0x4 DUP3 ADD MSTORE PUSH1 0x24 ADD PUSH2 0x60B JUMP JUMPDEST POP POP POP POP JUMP JUMPDEST PUSH1 0x0 SLOAD PUSH1 0x1 PUSH1 0x1 PUSH1 0xA0 SHL SUB AND CALLER EQ PUSH2 0x832 JUMPI PUSH1 0x40 MLOAD PUSH4 0x118CDAA7 PUSH1 0xE0 SHL DUP2 MSTORE CALLER PUSH1 0x4 DUP3 ADD MSTORE PUSH1 0x24 ADD PUSH2 0x60B JUMP JUMPDEST PUSH2 0xB68 DUP4 DUP4 DUP4 PUSH1 0x1 PUSH2 0xC57 JUMP JUMPDEST PUSH2 0xB90 JUMPI PUSH1 0x40 MLOAD PUSH4 0x5274AFE7 PUSH1 0xE0 SHL DUP2 MSTORE PUSH1 0x1 PUSH1 0x1 PUSH1 0xA0 SHL SUB DUP5 AND PUSH1 0x4 DUP3 ADD MSTORE PUSH1 0x24 ADD PUSH2 0x60B JUMP JUMPDEST POP POP POP JUMP JUMPDEST PUSH1 0x0 DUP1 SLOAD PUSH1 0x1 PUSH1 0x1 PUSH1 0xA0 SHL SUB DUP4 DUP2 AND PUSH1 0x1 PUSH1 0x1 PUSH1 0xA0 SHL SUB NOT DUP4 AND DUP2 OR DUP5 SSTORE PUSH1 0x40 MLOAD SWAP2 SWAP1 SWAP3 AND SWAP3 DUP4 SWAP2 PUSH32 0x8BE0079C531659141344CD1FD0A4F28419497F9722A3DAAFE3B4186F6B6457E0 SWAP2 SWAP1 LOG3 POP POP JUMP JUMPDEST PUSH1 0x40 MLOAD PUSH4 0x23B872DD PUSH1 0xE0 SHL PUSH1 0x0 DUP2 DUP2 MSTORE PUSH1 0x1 PUSH1 0x1 PUSH1 0xA0 SHL SUB DUP8 DUP2 AND PUSH1 0x4 MSTORE DUP7 AND PUSH1 0x24 MSTORE PUSH1 0x44 DUP6 SWAP1 MSTORE SWAP2 PUSH1 0x20 DUP4 PUSH1 0x64 DUP2 DUP1 DUP13 GAS CALL SWAP3 POP PUSH1 0x1 PUSH1 0x0 MLOAD EQ DUP4 AND PUSH2 0xC45 JUMPI DUP4 DUP4 ISZERO AND ISZERO PUSH2 0xC38 JUMPI RETURNDATASIZE PUSH1 0x0 DUP3 RETURNDATACOPY RETURNDATASIZE DUP2 REVERT JUMPDEST PUSH1 0x0 DUP9 EXTCODESIZE GT RETURNDATASIZE ISZERO AND DUP4 AND SWAP3 POP JUMPDEST PUSH1 0x40 MSTORE POP PUSH1 0x0 PUSH1 0x60 MSTORE SWAP6 SWAP5 POP POP POP POP POP JUMP JUMPDEST PUSH1 0x40 MLOAD PUSH4 0xA9059CBB PUSH1 0xE0 SHL PUSH1 0x0 DUP2 DUP2 MSTORE PUSH1 0x1 PUSH1 0x1 PUSH1 0xA0 SHL SUB DUP7 AND PUSH1 0x4 MSTORE PUSH1 0x24 DUP6 SWAP1 MSTORE SWAP2 PUSH1 0x20 DUP4 PUSH1 0x44 DUP2 DUP1 DUP12 GAS CALL SWAP3 POP PUSH1 0x1 PUSH1 0x0 MLOAD EQ DUP4 AND PUSH2 0xCB1 JUMPI DUP4 DUP4 ISZERO AND ISZERO PUSH2 0xCA4 JUMPI RETURNDATASIZE PUSH1 0x0 DUP3 RETURNDATACOPY RETURNDATASIZE DUP2 REVERT JUMPDEST PUSH1 0x0 DUP8 EXTCODESIZE GT RETURNDATASIZE ISZERO AND DUP4 AND SWAP3 POP JUMPDEST PUSH1 0x40 MSTORE POP SWAP5 SWAP4 POP POP POP POP JUMP JUMPDEST PUSH1 0x0 PUSH1 0x20 DUP3 DUP5 SUB SLT ISZERO PUSH2 0xCCF JUMPI PUSH1 0x0 DUP1 REVERT JUMPDEST POP CALLDATALOAD SWAP2 SWAP1 POP JUMP JUMPDEST DUP1 CALLDATALOAD PUSH1 0x1 PUSH1 0x1 PUSH1 0xA0 SHL SUB DUP2 AND DUP2 EQ PUSH2 0xCED JUMPI PUSH1 0x0 DUP1 REVERT JUMPDEST SWAP2 SWAP1 POP JUMP JUMPDEST PUSH1 0x0 DUP1 PUSH1 0x0 DUP1 PUSH1 0x60 DUP6 DUP8 SUB SLT ISZERO PUSH2 0xD08 JUMPI PUSH1 0x0 DUP1 REVERT JUMPDEST DUP5 CALLDATALOAD PUSH8 0xFFFFFFFFFFFFFFFF DUP1 DUP3 GT ISZERO PUSH2 0xD20 JUMPI PUSH1 0x0 DUP1 REVERT JUMPDEST DUP2 DUP8 ADD SWAP2 POP DUP8 PUSH1 0x1F DUP4 ADD SLT PUSH2 0xD34 JUMPI PUSH1 0x0 DUP1 REVERT JUMPDEST DUP2 CALLDATALOAD DUP2 DUP2 GT ISZERO PUSH2 0xD43 JUMPI PUSH1 0x0 DUP1 REVERT JUMPDEST DUP9 PUSH1 0x20 DUP3 DUP6 ADD ADD GT ISZERO PUSH2 0xD55 JUMPI PUSH1 0x0 DUP1 REVERT JUMPDEST PUSH1 0x20 SWAP3 DUP4 ADD SWAP7 POP SWAP5 POP PUSH2 0xD6B SWAP2 DUP8 ADD SWAP1 POP PUSH2 0xCD6 JUMP JUMPDEST SWAP4 SWAP7 SWAP3 SWAP6 POP SWAP3 SWAP4 PUSH1 0x40 ADD CALLDATALOAD SWAP3 POP POP JUMP JUMPDEST PUSH1 0x0 PUSH1 0x20 DUP3 DUP5 SUB SLT ISZERO PUSH2 0xD8D JUMPI PUSH1 0x0 DUP1 REVERT JUMPDEST PUSH2 0xD96 DUP3 PUSH2 0xCD6 JUMP JUMPDEST SWAP4 SWAP3 POP POP POP JUMP JUMPDEST PUSH4 0x4E487B71 PUSH1 0xE0 SHL PUSH1 0x0 MSTORE PUSH1 0x11 PUSH1 0x4 MSTORE PUSH1 0x24 PUSH1 0x0 REVERT JUMPDEST DUP1 DUP3 MUL DUP2 ISZERO DUP3 DUP3 DIV DUP5 EQ OR PUSH2 0xDCA JUMPI PUSH2 0xDCA PUSH2 0xD9D JUMP JUMPDEST SWAP3 SWAP2 POP POP JUMP JUMPDEST PUSH1 0x0 DUP3 PUSH2 0xDED JUMPI PUSH4 0x4E487B71 PUSH1 0xE0 SHL PUSH1 0x0 MSTORE PUSH1 0x12 PUSH1 0x4 MSTORE PUSH1 0x24 PUSH1 0x0 REVERT JUMPDEST POP DIV SWAP1 JUMP JUMPDEST DUP1 DUP3 ADD DUP1 DUP3 GT ISZERO PUSH2 0xDCA JUMPI PUSH2 0xDCA PUSH2 0xD9D JUMP JUMPDEST DUP2 DUP4 DUP3 CALLDATACOPY PUSH1 0x0 SWAP2 ADD SWAP1 DUP2 MSTORE SWAP2 SWAP1 POP JUMP JUMPDEST DUP2 DUP2 SUB DUP2 DUP2 GT ISZERO PUSH2 0xDCA JUMPI PUSH2 0xDCA PUSH2 0xD9D JUMP JUMPDEST DUP4 DUP2 MSTORE PUSH1 0x40 PUSH1 0x20 DUP3 ADD MSTORE DUP2 PUSH1 0x40 DUP3 ADD MSTORE DUP2 DUP4 PUSH1 0x60 DUP4 ADD CALLDATACOPY PUSH1 0x0 DUP2 DUP4 ADD PUSH1 0x60 SWAP1 DUP2 ADD SWAP2 SWAP1 SWAP2 MSTORE PUSH1 0x1F SWAP1 SWAP3 ADD PUSH1 0x1F NOT AND ADD ADD SWAP3 SWAP2 POP POP JUMP INVALID LOG2 PUSH5 0x6970667358 0x22 SLT KECCAK256 KECCAK256 SWAP8 0xD5 PUSH3 0xC0FF2E 0xE PUSH20 0x4E08429AA7E09169DBBE062A57E517D90E7C0E0F 0x5D RETURN EXP PUSH5 0x736F6C6343 STOP ADDMOD EQ STOP CALLER "},"methodIdentifiers":{"FOUNDER_BPS()":"b4f20e45","LIQ_BPS()":"351afe83","OPS_BPS()":"89f1fb7f","RESERVE_BPS()":"e41dc9f8","brdg()":"77e27f4c","brdgBuckets()":"edc66368","bucketBalances()":"c322798b","depositBrdg(uint256)":"1429490d","ethBuckets()":"58af3947","owner()":"8da5cb5b","renounceOwnership()":"715018a6","totalBrdgDeposited()":"55aaf082","totalEthDeposited()":"eae6754a","transferOwnership(address)":"f2fde38b","withdrawBrdg(string,address,uint256)":"46d06335","withdrawEth(string,address,uint256)":"b4a911e1"}}}}}