{
  "_format": "hh-sol-artifact-1",
  "contractName": "BRDG",
  "sourceName": "contracts/BRDG.sol",
  "abi": [
    {
      "inputs": [
        {
          "internalType": "address",
          "name": "treasury",
          "type": "address"
        }
      ],
      "stateMutability": "nonpayable",
      "type": "constructor"
    },
    {
      "inputs": [
        {
          "internalType": "address",
          "name": "spender",
          "type": "address"
        },
        {
          "internalType": "uint256",
          "name": "allowance",
          "type": "uint256"
        },
        {
          "internalType": "uint256",
          "name": "needed",
          "type": "uint256"
        }
      ],
      "name": "ERC20InsufficientAllowance",
      "type": "error"
    },
    {
      "inputs": [
        {
          "internalType": "address",
          "name": "sender",
          "type": "address"
        },
        {
          "internalType": "uint256",
          "name": "balance",
          "type": "uint256"
        },
        {
          "internalType": "uint256",
          "name": "needed",
          "type": "uint256"
        }
      ],
      "name": "ERC20InsufficientBalance",
      "type": "error"
    },
    {
      "inputs": [
        {
          "internalType": "address",
          "name": "approver",
          "type": "address"
        }
      ],
      "name": "ERC20InvalidApprover",
      "type": "error"
    },
    {
      "inputs": [
        {
          "internalType": "address",
          "name": "receiver",
          "type": "address"
        }
      ],
      "name": "ERC20InvalidReceiver",
      "type": "error"
    },
    {
      "inputs": [
        {
          "internalType": "address",
          "name": "sender",
          "type": "address"
        }
      ],
      "name": "ERC20InvalidSender",
      "type": "error"
    },
    {
      "inputs": [
        {
          "internalType": "address",
          "name": "spender",
          "type": "address"
        }
      ],
      "name": "ERC20InvalidSpender",
      "type": "error"
    },
    {
      "inputs": [
        {
          "internalType": "address",
          "name": "owner",
          "type": "address"
        }
      ],
      "name": "OwnableInvalidOwner",
      "type": "error"
    },
    {
      "inputs": [
        {
          "internalType": "address",
          "name": "account",
          "type": "address"
        }
      ],
      "name": "OwnableUnauthorizedAccount",
      "type": "error"
    },
    {
      "anonymous": false,
      "inputs": [
        {
          "indexed": true,
          "internalType": "address",
          "name": "owner",
          "type": "address"
        },
        {
          "indexed": true,
          "internalType": "address",
          "name": "spender",
          "type": "address"
        },
        {
          "indexed": false,
          "internalType": "uint256",
          "name": "value",
          "type": "uint256"
        }
      ],
      "name": "Approval",
      "type": "event"
    },
    {
      "anonymous": false,
      "inputs": [
        {
          "indexed": true,
          "internalType": "address",
          "name": "account",
          "type": "address"
        },
        {
          "indexed": false,
          "internalType": "bool",
          "name": "exempt",
          "type": "bool"
        }
      ],
      "name": "BurnExemptSet",
      "type": "event"
    },
    {
      "anonymous": false,
      "inputs": [
        {
          "indexed": true,
          "internalType": "address",
          "name": "previousOwner",
          "type": "address"
        },
        {
          "indexed": true,
          "internalType": "address",
          "name": "newOwner",
          "type": "address"
        }
      ],
      "name": "OwnershipTransferred",
      "type": "event"
    },
    {
      "anonymous": false,
      "inputs": [
        {
          "indexed": true,
          "internalType": "address",
          "name": "from",
          "type": "address"
        },
        {
          "indexed": true,
          "internalType": "address",
          "name": "to",
          "type": "address"
        },
        {
          "indexed": false,
          "internalType": "uint256",
          "name": "value",
          "type": "uint256"
        }
      ],
      "name": "Transfer",
      "type": "event"
    },
    {
      "inputs": [],
      "name": "BURN_BPS",
      "outputs": [
        {
          "internalType": "uint256",
          "name": "",
          "type": "uint256"
        }
      ],
      "stateMutability": "view",
      "type": "function"
    },
    {
      "inputs": [],
      "name": "MAX_SUPPLY",
      "outputs": [
        {
          "internalType": "uint256",
          "name": "",
          "type": "uint256"
        }
      ],
      "stateMutability": "view",
      "type": "function"
    },
    {
      "inputs": [
        {
          "internalType": "address",
          "name": "owner",
          "type": "address"
        },
        {
          "internalType": "address",
          "name": "spender",
          "type": "address"
        }
      ],
      "name": "allowance",
      "outputs": [
        {
          "internalType": "uint256",
          "name": "",
          "type": "uint256"
        }
      ],
      "stateMutability": "view",
      "type": "function"
    },
    {
      "inputs": [
        {
          "internalType": "address",
          "name": "spender",
          "type": "address"
        },
        {
          "internalType": "uint256",
          "name": "value",
          "type": "uint256"
        }
      ],
      "name": "approve",
      "outputs": [
        {
          "internalType": "bool",
          "name": "",
          "type": "bool"
        }
      ],
      "stateMutability": "nonpayable",
      "type": "function"
    },
    {
      "inputs": [
        {
          "internalType": "address",
          "name": "account",
          "type": "address"
        }
      ],
      "name": "balanceOf",
      "outputs": [
        {
          "internalType": "uint256",
          "name": "",
          "type": "uint256"
        }
      ],
      "stateMutability": "view",
      "type": "function"
    },
    {
      "inputs": [
        {
          "internalType": "address",
          "name": "",
          "type": "address"
        }
      ],
      "name": "burnExempt",
      "outputs": [
        {
          "internalType": "bool",
          "name": "",
          "type": "bool"
        }
      ],
      "stateMutability": "view",
      "type": "function"
    },
    {
      "inputs": [],
      "name": "decimals",
      "outputs": [
        {
          "internalType": "uint8",
          "name": "",
          "type": "uint8"
        }
      ],
      "stateMutability": "view",
      "type": "function"
    },
    {
      "inputs": [
        {
          "internalType": "address",
          "name": "to",
          "type": "address"
        },
        {
          "internalType": "uint256",
          "name": "amount",
          "type": "uint256"
        }
      ],
      "name": "mint",
      "outputs": [],
      "stateMutability": "nonpayable",
      "type": "function"
    },
    {
      "inputs": [],
      "name": "name",
      "outputs": [
        {
          "internalType": "string",
          "name": "",
          "type": "string"
        }
      ],
      "stateMutability": "view",
      "type": "function"
    },
    {
      "inputs": [],
      "name": "owner",
      "outputs": [
        {
          "internalType": "address",
          "name": "",
          "type": "address"
        }
      ],
      "stateMutability": "view",
      "type": "function"
    },
    {
      "inputs": [],
      "name": "renounceOwnership",
      "outputs": [],
      "stateMutability": "nonpayable",
      "type": "function"
    },
    {
      "inputs": [
        {
          "internalType": "address",
          "name": "account",
          "type": "address"
        },
        {
          "internalType": "bool",
          "name": "exempt",
          "type": "bool"
        }
      ],
      "name": "setBurnExempt",
      "outputs": [],
      "stateMutability": "nonpayable",
      "type": "function"
    },
    {
      "inputs": [],
      "name": "symbol",
      "outputs": [
        {
          "internalType": "string",
          "name": "",
          "type": "string"
        }
      ],
      "stateMutability": "view",
      "type": "function"
    },
    {
      "inputs": [],
      "name": "totalBurned",
      "outputs": [
        {
          "internalType": "uint256",
          "name": "",
          "type": "uint256"
        }
      ],
      "stateMutability": "view",
      "type": "function"
    },
    {
      "inputs": [],
      "name": "totalSupply",
      "outputs": [
        {
          "internalType": "uint256",
          "name": "",
          "type": "uint256"
        }
      ],
      "stateMutability": "view",
      "type": "function"
    },
    {
      "inputs": [
        {
          "internalType": "address",
          "name": "to",
          "type": "address"
        },
        {
          "internalType": "uint256",
          "name": "value",
          "type": "uint256"
        }
      ],
      "name": "transfer",
      "outputs": [
        {
          "internalType": "bool",
          "name": "",
          "type": "bool"
        }
      ],
      "stateMutability": "nonpayable",
      "type": "function"
    },
    {
      "inputs": [
        {
          "internalType": "address",
          "name": "from",
          "type": "address"
        },
        {
          "internalType": "address",
          "name": "to",
          "type": "address"
        },
        {
          "internalType": "uint256",
          "name": "value",
          "type": "uint256"
        }
      ],
      "name": "transferFrom",
      "outputs": [
        {
          "internalType": "bool",
          "name": "",
          "type": "bool"
        }
      ],
      "stateMutability": "nonpayable",
      "type": "function"
    },
    {
      "inputs": [
        {
          "internalType": "address",
          "name": "newOwner",
          "type": "address"
        }
      ],
      "name": "transferOwnership",
      "outputs": [],
      "stateMutability": "nonpayable",
      "type": "function"
    }
  ],
  "bytecode": "0x60806040523480156200001157600080fd5b50604051620011d2380380620011d2833981016040819052620000349162000409565b336040518060400160405280600981526020016842726964676520414960b81b815250604051806040016040528060048152602001634252444760e01b8152508160039081620000859190620004df565b506004620000948282620004df565b5050506001600160a01b038116620000c757604051631e4fbdf760e01b8152600060048201526024015b60405180910390fd5b620000d2816200015c565b506001600160a01b0381166200011b5760405162461bcd60e51b815260206004820152600d60248201526c7a65726f20747265617375727960981b6044820152606401620000be565b6001600160a01b0381166000908152600760205260409020805460ff1916600117905562000155816a084595161401484a000000620001ae565b5062000630565b600580546001600160a01b038381166001600160a01b0319831681179093556040519116919082907f8be0079c531659141344cd1fd0a4f28419497f9722a3daafe3b4186f6b6457e090600090a35050565b6001600160a01b038216620001da5760405163ec442f0560e01b815260006004820152602401620000be565b620001e860008383620001ec565b5050565b6001600160a01b03831615806200020a57506001600160a01b038216155b806200022e57506001600160a01b03831660009081526007602052604090205460ff165b806200025257506001600160a01b03821660009081526007602052604090205460ff165b156200026a5762000265838383620002d6565b505050565b60006127106200027c606484620005c1565b620002889190620005e1565b9050600062000298828462000604565b9050620002a885600084620002d6565b8160066000828254620002bc91906200061a565b90915550620002cf9050858583620002d6565b5050505050565b6001600160a01b03831662000305578060026000828254620002f991906200061a565b90915550620003799050565b6001600160a01b038316600090815260208190526040902054818110156200035a5760405163391434e360e21b81526001600160a01b03851660048201526024810182905260448101839052606401620000be565b6001600160a01b03841660009081526020819052604090209082900390555b6001600160a01b0382166200039757600280548290039055620003b6565b6001600160a01b03821660009081526020819052604090208054820190555b816001600160a01b0316836001600160a01b03167fddf252ad1be2c89b69c2b068fc378daa952ba7f163c4a11628f55a4df523b3ef83604051620003fc91815260200190565b60405180910390a3505050565b6000602082840312156200041c57600080fd5b81516001600160a01b03811681146200043457600080fd5b9392505050565b634e487b7160e01b600052604160045260246000fd5b600181811c908216806200046657607f821691505b6020821081036200048757634e487b7160e01b600052602260045260246000fd5b50919050565b601f8211156200026557600081815260208120601f850160051c81016020861015620004b65750805b601f850160051c820191505b81811015620004d757828155600101620004c2565b505050505050565b81516001600160401b03811115620004fb57620004fb6200043b565b62000513816200050c845462000451565b846200048d565b602080601f8311600181146200054b5760008415620005325750858301515b600019600386901b1c1916600185901b178555620004d7565b600085815260208120601f198616915b828110156200057c578886015182559484019460019091019084016200055b565b50858210156200059b5787850151600019600388901b60f8161c191681555b5050505050600190811b01905550565b634e487b7160e01b600052601160045260246000fd5b8082028115828204841417620005db57620005db620005ab565b92915050565b600082620005ff57634e487b7160e01b600052601260045260246000fd5b500490565b81810381811115620005db57620005db620005ab565b80820180821115620005db57620005db620005ab565b610b9280620006406000396000f3fe608060405234801561001057600080fd5b50600436106101165760003560e01c8063715018a6116100a2578063a6fd284811610071578063a6fd284814610236578063a9059cbb14610249578063d89135cd1461025c578063dd62ed3e14610265578063f2fde38b1461029e57600080fd5b8063715018a6146102035780638da5cb5b1461020b57806395d89b4114610226578063a37a9fc01461022e57600080fd5b8063256619e1116100e9578063256619e114610181578063313ce567146101a457806332cb6b0c146101b357806340c10f19146101c557806370a08231146101da57600080fd5b806306fdde031461011b578063095ea7b31461013957806318160ddd1461015c57806323b872dd1461016e575b600080fd5b6101236102b1565b604051610130919061094c565b60405180910390f35b61014c6101473660046109b6565b610343565b6040519015158152602001610130565b6002545b604051908152602001610130565b61014c61017c3660046109e0565b61035d565b61014c61018f366004610a1c565b60076020526000908152604090205460ff1681565b60405160128152602001610130565b6101606a52b7d2dcc80cd2e400000081565b6101d86101d33660046109b6565b610381565b005b6101606101e8366004610a1c565b6001600160a01b031660009081526020819052604090205490565b6101d86103ff565b6005546040516001600160a01b039091168152602001610130565b610123610413565b610160606481565b6101d8610244366004610a3e565b610422565b61014c6102573660046109b6565b610489565b61016060065481565b610160610273366004610a7a565b6001600160a01b03918216600090815260016020908152604080832093909416825291909152205490565b6101d86102ac366004610a1c565b610497565b6060600380546102c090610aad565b80601f01602080910402602001604051908101604052809291908181526020018280546102ec90610aad565b80156103395780601f1061030e57610100808354040283529160200191610339565b820191906000526020600020905b81548152906001019060200180831161031c57829003601f168201915b5050505050905090565b6000336103518185856104d5565b60019150505b92915050565b60003361036b8582856104e7565b610376858585610566565b506001949350505050565b6103896105c5565b6a52b7d2dcc80cd2e40000008161039f60025490565b6103a99190610afd565b11156103f15760405162461bcd60e51b815260206004820152601260248201527165786365656473206d617820737570706c7960701b60448201526064015b60405180910390fd5b6103fb82826105f2565b5050565b6104076105c5565b6104116000610628565b565b6060600480546102c090610aad565b61042a6105c5565b6001600160a01b038216600081815260076020908152604091829020805460ff191685151590811790915591519182527fee0c8a6b38e453d6845df2dc367fe88cac37c6e4bbe2f58f08cd3b58b6a8e710910160405180910390a25050565b600033610351818585610566565b61049f6105c5565b6001600160a01b0381166104c957604051631e4fbdf760e01b8152600060048201526024016103e8565b6104d281610628565b50565b6104e2838383600161067a565b505050565b6001600160a01b03838116600090815260016020908152604080832093861683529290522054600019811015610560578181101561055157604051637dc7a0d960e11b81526001600160a01b038416600482015260248101829052604481018390526064016103e8565b6105608484848403600061067a565b50505050565b6001600160a01b03831661059057604051634b637e8f60e11b8152600060048201526024016103e8565b6001600160a01b0382166105ba5760405163ec442f0560e01b8152600060048201526024016103e8565b6104e283838361074f565b6005546001600160a01b031633146104115760405163118cdaa760e01b81523360048201526024016103e8565b6001600160a01b03821661061c5760405163ec442f0560e01b8152600060048201526024016103e8565b6103fb6000838361074f565b600580546001600160a01b038381166001600160a01b0319831681179093556040519116919082907f8be0079c531659141344cd1fd0a4f28419497f9722a3daafe3b4186f6b6457e090600090a35050565b6001600160a01b0384166106a45760405163e602df0560e01b8152600060048201526024016103e8565b6001600160a01b0383166106ce57604051634a1406b160e11b8152600060048201526024016103e8565b6001600160a01b038085166000908152600160209081526040808320938716835292905220829055801561056057826001600160a01b0316846001600160a01b03167f8c5be1e5ebec7d5bd14f71427d1e84f3dd0314c0f7b2291e5b200ac8c7c3b9258460405161074191815260200190565b60405180910390a350505050565b6001600160a01b038316158061076c57506001600160a01b038216155b8061078f57506001600160a01b03831660009081526007602052604090205460ff165b806107b257506001600160a01b03821660009081526007602052604090205460ff165b156107c2576104e2838383610822565b60006127106107d2606484610b10565b6107dc9190610b27565b905060006107ea8284610b49565b90506107f885600084610822565b816006600082825461080a9190610afd565b9091555061081b9050858583610822565b5050505050565b6001600160a01b03831661084d5780600260008282546108429190610afd565b909155506108bf9050565b6001600160a01b038316600090815260208190526040902054818110156108a05760405163391434e360e21b81526001600160a01b038516600482015260248101829052604481018390526064016103e8565b6001600160a01b03841660009081526020819052604090209082900390555b6001600160a01b0382166108db576002805482900390556108fa565b6001600160a01b03821660009081526020819052604090208054820190555b816001600160a01b0316836001600160a01b03167fddf252ad1be2c89b69c2b068fc378daa952ba7f163c4a11628f55a4df523b3ef8360405161093f91815260200190565b60405180910390a3505050565b600060208083528351808285015260005b818110156109795785810183015185820160400152820161095d565b506000604082860101526040601f19601f8301168501019250505092915050565b80356001600160a01b03811681146109b157600080fd5b919050565b600080604083850312156109c957600080fd5b6109d28361099a565b946020939093013593505050565b6000806000606084860312156109f557600080fd5b6109fe8461099a565b9250610a0c6020850161099a565b9150604084013590509250925092565b600060208284031215610a2e57600080fd5b610a378261099a565b9392505050565b60008060408385031215610a5157600080fd5b610a5a8361099a565b915060208301358015158114610a6f57600080fd5b809150509250929050565b60008060408385031215610a8d57600080fd5b610a968361099a565b9150610aa46020840161099a565b90509250929050565b600181811c90821680610ac157607f821691505b602082108103610ae157634e487b7160e01b600052602260045260246000fd5b50919050565b634e487b7160e01b600052601160045260246000fd5b8082018082111561035757610357610ae7565b808202811582820484141761035757610357610ae7565b600082610b4457634e487b7160e01b600052601260045260246000fd5b500490565b8181038181111561035757610357610ae756fea2646970667358221220a11fa15ae5a69557f0eb8fa0ce26a4164ecc821d0e1fbfe9c8fa84096a4cc51f64736f6c63430008140033",
  "linkReferences": {},
  "deployedLinkReferences": {}
}