{
  "_format": "hh-sol-artifact-1",
  "contractName": "StakingVault",
  "sourceName": "contracts/StakingVault.sol",
  "abi": [
    {
      "inputs": [
        {
          "internalType": "address",
          "name": "_brdg",
          "type": "address"
        }
      ],
      "stateMutability": "nonpayable",
      "type": "constructor"
    },
    {
      "inputs": [
        {
          "internalType": "address",
          "name": "owner",
          "type": "address"
        }
      ],
      "name": "OwnableInvalidOwner",
      "type": "error"
    },
    {
      "inputs": [
        {
          "internalType": "address",
          "name": "account",
          "type": "address"
        }
      ],
      "name": "OwnableUnauthorizedAccount",
      "type": "error"
    },
    {
      "inputs": [
        {
          "internalType": "address",
          "name": "token",
          "type": "address"
        }
      ],
      "name": "SafeERC20FailedOperation",
      "type": "error"
    },
    {
      "anonymous": false,
      "inputs": [
        {
          "indexed": true,
          "internalType": "address",
          "name": "previousOwner",
          "type": "address"
        },
        {
          "indexed": true,
          "internalType": "address",
          "name": "newOwner",
          "type": "address"
        }
      ],
      "name": "OwnershipTransferred",
      "type": "event"
    },
    {
      "anonymous": false,
      "inputs": [
        {
          "indexed": true,
          "internalType": "address",
          "name": "from",
          "type": "address"
        },
        {
          "indexed": false,
          "internalType": "uint256",
          "name": "amount",
          "type": "uint256"
        },
        {
          "indexed": false,
          "internalType": "string",
          "name": "source",
          "type": "string"
        }
      ],
      "name": "RewardsFunded",
      "type": "event"
    },
    {
      "anonymous": false,
      "inputs": [
        {
          "indexed": true,
          "internalType": "address",
          "name": "user",
          "type": "address"
        },
        {
          "indexed": false,
          "internalType": "uint256",
          "name": "amount",
          "type": "uint256"
        },
        {
          "indexed": false,
          "internalType": "uint256",
          "name": "lockDays",
          "type": "uint256"
        },
        {
          "indexed": false,
          "internalType": "uint256",
          "name": "stakeIndex",
          "type": "uint256"
        }
      ],
      "name": "Staked",
      "type": "event"
    },
    {
      "anonymous": false,
      "inputs": [
        {
          "indexed": true,
          "internalType": "address",
          "name": "user",
          "type": "address"
        },
        {
          "indexed": false,
          "internalType": "uint256",
          "name": "principal",
          "type": "uint256"
        },
        {
          "indexed": false,
          "internalType": "uint256",
          "name": "reward",
          "type": "uint256"
        },
        {
          "indexed": false,
          "internalType": "uint256",
          "name": "stakeIndex",
          "type": "uint256"
        }
      ],
      "name": "Unstaked",
      "type": "event"
    },
    {
      "inputs": [],
      "name": "brdg",
      "outputs": [
        {
          "internalType": "contract IERC20",
          "name": "",
          "type": "address"
        }
      ],
      "stateMutability": "view",
      "type": "function"
    },
    {
      "inputs": [],
      "name": "effectiveAPY",
      "outputs": [
        {
          "internalType": "uint256",
          "name": "percentBP",
          "type": "uint256"
        }
      ],
      "stateMutability": "view",
      "type": "function"
    },
    {
      "inputs": [
        {
          "internalType": "address",
          "name": "token",
          "type": "address"
        },
        {
          "internalType": "address",
          "name": "to",
          "type": "address"
        },
        {
          "internalType": "uint256",
          "name": "amount",
          "type": "uint256"
        }
      ],
      "name": "emergencyWithdraw",
      "outputs": [],
      "stateMutability": "nonpayable",
      "type": "function"
    },
    {
      "inputs": [
        {
          "internalType": "uint256",
          "name": "amount",
          "type": "uint256"
        },
        {
          "internalType": "string",
          "name": "source",
          "type": "string"
        }
      ],
      "name": "fundRewards",
      "outputs": [],
      "stateMutability": "nonpayable",
      "type": "function"
    },
    {
      "inputs": [
        {
          "internalType": "address",
          "name": "user",
          "type": "address"
        }
      ],
      "name": "getStakeCount",
      "outputs": [
        {
          "internalType": "uint256",
          "name": "",
          "type": "uint256"
        }
      ],
      "stateMutability": "view",
      "type": "function"
    },
    {
      "inputs": [
        {
          "internalType": "address",
          "name": "user",
          "type": "address"
        }
      ],
      "name": "getStakes",
      "outputs": [
        {
          "components": [
            {
              "internalType": "uint256",
              "name": "amount",
              "type": "uint256"
            },
            {
              "internalType": "uint256",
              "name": "startTime",
              "type": "uint256"
            },
            {
              "internalType": "uint256",
              "name": "lockDays",
              "type": "uint256"
            },
            {
              "internalType": "bool",
              "name": "withdrawn",
              "type": "bool"
            }
          ],
          "internalType": "struct StakingVault.Stake[]",
          "name": "",
          "type": "tuple[]"
        }
      ],
      "stateMutability": "view",
      "type": "function"
    },
    {
      "inputs": [],
      "name": "owner",
      "outputs": [
        {
          "internalType": "address",
          "name": "",
          "type": "address"
        }
      ],
      "stateMutability": "view",
      "type": "function"
    },
    {
      "inputs": [
        {
          "internalType": "address",
          "name": "user",
          "type": "address"
        },
        {
          "internalType": "uint256",
          "name": "stakeIndex",
          "type": "uint256"
        }
      ],
      "name": "pendingReward",
      "outputs": [
        {
          "internalType": "uint256",
          "name": "",
          "type": "uint256"
        }
      ],
      "stateMutability": "view",
      "type": "function"
    },
    {
      "inputs": [],
      "name": "renounceOwnership",
      "outputs": [],
      "stateMutability": "nonpayable",
      "type": "function"
    },
    {
      "inputs": [],
      "name": "rewardPool",
      "outputs": [
        {
          "internalType": "uint256",
          "name": "",
          "type": "uint256"
        }
      ],
      "stateMutability": "view",
      "type": "function"
    },
    {
      "inputs": [
        {
          "internalType": "uint256",
          "name": "amount",
          "type": "uint256"
        },
        {
          "internalType": "uint256",
          "name": "lockDays",
          "type": "uint256"
        }
      ],
      "name": "stake",
      "outputs": [],
      "stateMutability": "nonpayable",
      "type": "function"
    },
    {
      "inputs": [
        {
          "internalType": "address",
          "name": "",
          "type": "address"
        },
        {
          "internalType": "uint256",
          "name": "",
          "type": "uint256"
        }
      ],
      "name": "stakes",
      "outputs": [
        {
          "internalType": "uint256",
          "name": "amount",
          "type": "uint256"
        },
        {
          "internalType": "uint256",
          "name": "startTime",
          "type": "uint256"
        },
        {
          "internalType": "uint256",
          "name": "lockDays",
          "type": "uint256"
        },
        {
          "internalType": "bool",
          "name": "withdrawn",
          "type": "bool"
        }
      ],
      "stateMutability": "view",
      "type": "function"
    },
    {
      "inputs": [],
      "name": "totalDistributed",
      "outputs": [
        {
          "internalType": "uint256",
          "name": "",
          "type": "uint256"
        }
      ],
      "stateMutability": "view",
      "type": "function"
    },
    {
      "inputs": [],
      "name": "totalStaked",
      "outputs": [
        {
          "internalType": "uint256",
          "name": "",
          "type": "uint256"
        }
      ],
      "stateMutability": "view",
      "type": "function"
    },
    {
      "inputs": [
        {
          "internalType": "address",
          "name": "newOwner",
          "type": "address"
        }
      ],
      "name": "transferOwnership",
      "outputs": [],
      "stateMutability": "nonpayable",
      "type": "function"
    },
    {
      "inputs": [
        {
          "internalType": "uint256",
          "name": "stakeIndex",
          "type": "uint256"
        }
      ],
      "name": "unstake",
      "outputs": [],
      "stateMutability": "nonpayable",
      "type": "function"
    }
  ],
  "bytecode": "0x60a060405234801561001057600080fd5b5060405161101438038061101483398101604081905261002f91610103565b338061005657604051631e4fbdf760e01b8152600060048201526024015b60405180910390fd5b61005f816100b3565b506001600160a01b0381166100a25760405162461bcd60e51b81526020600482015260096024820152687a65726f206272646760b81b604482015260640161004d565b6001600160a01b0316608052610133565b600080546001600160a01b038381166001600160a01b0319831681178455604051919092169283917f8be0079c531659141344cd1fd0a4f28419497f9722a3daafe3b4186f6b6457e09190a35050565b60006020828403121561011557600080fd5b81516001600160a01b038116811461012c57600080fd5b9392505050565b608051610eb1610163600039600081816101780152818161045d015281816105cd01526108260152610eb16000f3fe608060405234801561001057600080fd5b50600436106101005760003560e01c80638da5cb5b11610097578063eebc8ed011610066578063eebc8ed014610243578063efca2eed14610256578063f2fde38b1461025f578063f430cf0d1461027257600080fd5b80638da5cb5b146101ee578063977ae810146101ff578063cf57ee6914610207578063e63ea4081461023057600080fd5b806377e27f4c116100d357806377e27f4c146101735780637b0472f0146101b25780637ba6f458146101c5578063817b1cd2146101e557600080fd5b80632e17de7814610105578063584b62a11461011a57806366666aa914610154578063715018a61461016b575b600080fd5b610118610113366004610bf9565b610285565b005b61012d610128366004610c2e565b6104d0565b60408051948552602085019390935291830152151560608201526080015b60405180910390f35b61015d60035481565b60405190815260200161014b565b610118610519565b61019a7f000000000000000000000000000000000000000000000000000000000000000081565b6040516001600160a01b03909116815260200161014b565b6101186101c0366004610c58565b61052d565b6101d86101d3366004610c7a565b6106e3565b60405161014b9190610c9c565b61015d60025481565b6000546001600160a01b031661019a565b61015d61077f565b61015d610215366004610c7a565b6001600160a01b031660009081526001602052604090205490565b61011861023e366004610d02565b6107b2565b610118610251366004610d3e565b6107d3565b61015d60045481565b61011861026d366004610c7a565b6108a8565b61015d610280366004610c2e565b6108e6565b3360009081526001602052604081208054839081106102a6576102a6610dba565b60009182526020909120600490910201600381015490915060ff16156103075760405162461bcd60e51b815260206004820152601160248201527030b63932b0b23c903bb4ba34323930bbb760791b60448201526064015b60405180910390fd5b600081600201546201518061031c9190610de6565b826001015461032b9190610dfd565b90508042101561036c5760405162461bcd60e51b815260206004820152600c60248201526b1cdd1a5b1b081b1bd8dad95960a21b60448201526064016102fe565b600061016d836002015484600001546103859190610de6565b61038f9190610e10565b9050600060026003546103a29190610e10565b905060008082116103b45760006103d9565b600280546103c191610de6565b836003546103cf9190610de6565b6103d99190610e10565b9050818111156103e65750805b60038501805460ff19166001179055845460028054600090610409908490610e32565b9250508190555080600360008282546104229190610e32565b92505081905550806004600082825461043b9190610dfd565b90915550508454610484903390610453908490610dfd565b6001600160a01b037f0000000000000000000000000000000000000000000000000000000000000000169190610a33565b84546040805191825260208201839052810187905233907f204fccf0d92ed8d48f204adb39b2e81e92bad0dedb93f5716ca9478cfb57de009060600160405180910390a2505050505050565b600160205281600052604060002081815481106104ec57600080fd5b60009182526020909120600490910201805460018201546002830154600390930154919450925060ff1684565b610521610a68565b61052b6000610a95565b565b6000821161056b5760405162461bcd60e51b815260206004820152600b60248201526a1e995c9bc8185b5bdd5b9d60aa1b60448201526064016102fe565b601e811015801561057e575061016d8111155b6105c05760405162461bcd60e51b81526020600482015260136024820152721a5b9d985b1a59081b1bd8dac81c195c9a5bd9606a1b60448201526064016102fe565b6105f56001600160a01b037f000000000000000000000000000000000000000000000000000000000000000016333085610ae5565b3360009081526001602081815260408084208151608081018352878152428185019081529281018781526060820187815283548088018555938852948720915160049093029091019182559151938101939093555160028084019190915590516003909201805460ff191692151592909217909155805484929061067a908490610dfd565b9091555050336000818152600160208190526040909120547fb4caaf29adda3eefee3ad552a8e85058589bf834c7466cae4ee58787f70589ed91859185916106c191610e32565b6040805193845260208401929092529082015260600160405180910390a25050565b6001600160a01b0381166000908152600160209081526040808320805482518185028101850190935280835260609492939192909184015b82821015610774576000848152602090819020604080516080810182526004860290920180548352600180820154848601526002820154928401929092526003015460ff1615156060830152908352909201910161071b565b505050509050919050565b60006002546000036107915750600090565b6002546003546107a390612710610de6565b6107ad9190610e10565b905090565b6107ba610a68565b6107ce6001600160a01b0384168383610a33565b505050565b6107db610a68565b600083116108195760405162461bcd60e51b815260206004820152600b60248201526a1e995c9bc8185b5bdd5b9d60aa1b60448201526064016102fe565b61084e6001600160a01b037f000000000000000000000000000000000000000000000000000000000000000016333086610ae5565b82600360008282546108609190610dfd565b909155505060405133907f1d5ccf4836ea4a5bc67bf073c2dbc3e735eb40380f620882e8994f340b99acbf9061089b90869086908690610e45565b60405180910390a2505050565b6108b0610a68565b6001600160a01b0381166108da57604051631e4fbdf760e01b8152600060048201526024016102fe565b6108e381610a95565b50565b6001600160a01b038216600090815260016020526040812054821061090d57506000610a2d565b6001600160a01b038316600090815260016020526040812080548490811061093757610937610dba565b60009182526020909120600490910201600381015490915060ff168061095d5750600254155b1561096c576000915050610a2d565b60008160020154620151806109819190610de6565b82600101546109909190610dfd565b9050804210156109a557600092505050610a2d565b600061016d836002015484600001546109be9190610de6565b6109c89190610e10565b9050600060026003546109db9190610e10565b9050600080600354116109ef576000610a14565b600280546109fc91610de6565b83600354610a0a9190610de6565b610a149190610e10565b9050818111610a235780610a25565b815b955050505050505b92915050565b610a408383836001610b21565b6107ce57604051635274afe760e01b81526001600160a01b03841660048201526024016102fe565b6000546001600160a01b0316331461052b5760405163118cdaa760e01b81523360048201526024016102fe565b600080546001600160a01b038381166001600160a01b0319831681178455604051919092169283917f8be0079c531659141344cd1fd0a4f28419497f9722a3daafe3b4186f6b6457e09190a35050565b610af3848484846001610b87565b610b1b57604051635274afe760e01b81526001600160a01b03851660048201526024016102fe565b50505050565b60405163a9059cbb60e01b60008181526001600160a01b038616600452602485905291602083604481808b5af192506001600051148316610b7b578383151615610b6e573d6000823e3d81fd5b6000873b113d1516831692505b60405250949350505050565b6040516323b872dd60e01b60008181526001600160a01b038781166004528616602452604485905291602083606481808c5af192506001600051148316610be7578383151615610bda573d6000823e3d81fd5b6000883b113d1516831692505b60405250600060605295945050505050565b600060208284031215610c0b57600080fd5b5035919050565b80356001600160a01b0381168114610c2957600080fd5b919050565b60008060408385031215610c4157600080fd5b610c4a83610c12565b946020939093013593505050565b60008060408385031215610c6b57600080fd5b50508035926020909101359150565b600060208284031215610c8c57600080fd5b610c9582610c12565b9392505050565b602080825282518282018190526000919060409081850190868401855b82811015610cf5578151805185528681015187860152858101518686015260609081015115159085015260809093019290850190600101610cb9565b5091979650505050505050565b600080600060608486031215610d1757600080fd5b610d2084610c12565b9250610d2e60208501610c12565b9150604084013590509250925092565b600080600060408486031215610d5357600080fd5b83359250602084013567ffffffffffffffff80821115610d7257600080fd5b818601915086601f830112610d8657600080fd5b813581811115610d9557600080fd5b876020828501011115610da757600080fd5b6020830194508093505050509250925092565b634e487b7160e01b600052603260045260246000fd5b634e487b7160e01b600052601160045260246000fd5b8082028115828204841417610a2d57610a2d610dd0565b80820180821115610a2d57610a2d610dd0565b600082610e2d57634e487b7160e01b600052601260045260246000fd5b500490565b81810381811115610a2d57610a2d610dd0565b83815260406020820152816040820152818360608301376000818301606090810191909152601f909201601f191601019291505056fea26469706673582212201311bedfbe21668d877342aa812260c68a58a7be359cb120bd7f9019d2046ec264736f6c63430008140033",
  "linkReferences": {},
  "deployedLinkReferences": {}
}