{
  "_format": "hh-sol-artifact-1",
  "contractName": "TreasuryVault",
  "sourceName": "contracts/TreasuryVault.sol",
  "abi": [
    {
      "inputs": [
        {
          "internalType": "address",
          "name": "_brdg",
          "type": "address"
        }
      ],
      "stateMutability": "nonpayable",
      "type": "constructor"
    },
    {
      "inputs": [
        {
          "internalType": "address",
          "name": "owner",
          "type": "address"
        }
      ],
      "name": "OwnableInvalidOwner",
      "type": "error"
    },
    {
      "inputs": [
        {
          "internalType": "address",
          "name": "account",
          "type": "address"
        }
      ],
      "name": "OwnableUnauthorizedAccount",
      "type": "error"
    },
    {
      "inputs": [
        {
          "internalType": "address",
          "name": "token",
          "type": "address"
        }
      ],
      "name": "SafeERC20FailedOperation",
      "type": "error"
    },
    {
      "anonymous": false,
      "inputs": [
        {
          "indexed": true,
          "internalType": "address",
          "name": "from",
          "type": "address"
        },
        {
          "indexed": false,
          "internalType": "uint256",
          "name": "amount",
          "type": "uint256"
        }
      ],
      "name": "BrdgDeposited",
      "type": "event"
    },
    {
      "anonymous": false,
      "inputs": [
        {
          "indexed": true,
          "internalType": "address",
          "name": "to",
          "type": "address"
        },
        {
          "indexed": false,
          "internalType": "uint256",
          "name": "amount",
          "type": "uint256"
        },
        {
          "indexed": false,
          "internalType": "string",
          "name": "bucket",
          "type": "string"
        }
      ],
      "name": "BrdgWithdrawn",
      "type": "event"
    },
    {
      "anonymous": false,
      "inputs": [
        {
          "indexed": true,
          "internalType": "address",
          "name": "from",
          "type": "address"
        },
        {
          "indexed": false,
          "internalType": "uint256",
          "name": "amount",
          "type": "uint256"
        }
      ],
      "name": "EthDeposited",
      "type": "event"
    },
    {
      "anonymous": false,
      "inputs": [
        {
          "indexed": true,
          "internalType": "address",
          "name": "to",
          "type": "address"
        },
        {
          "indexed": false,
          "internalType": "uint256",
          "name": "amount",
          "type": "uint256"
        },
        {
          "indexed": false,
          "internalType": "string",
          "name": "bucket",
          "type": "string"
        }
      ],
      "name": "EthWithdrawn",
      "type": "event"
    },
    {
      "anonymous": false,
      "inputs": [
        {
          "indexed": true,
          "internalType": "address",
          "name": "previousOwner",
          "type": "address"
        },
        {
          "indexed": true,
          "internalType": "address",
          "name": "newOwner",
          "type": "address"
        }
      ],
      "name": "OwnershipTransferred",
      "type": "event"
    },
    {
      "inputs": [],
      "name": "FOUNDER_BPS",
      "outputs": [
        {
          "internalType": "uint256",
          "name": "",
          "type": "uint256"
        }
      ],
      "stateMutability": "view",
      "type": "function"
    },
    {
      "inputs": [],
      "name": "LIQ_BPS",
      "outputs": [
        {
          "internalType": "uint256",
          "name": "",
          "type": "uint256"
        }
      ],
      "stateMutability": "view",
      "type": "function"
    },
    {
      "inputs": [],
      "name": "OPS_BPS",
      "outputs": [
        {
          "internalType": "uint256",
          "name": "",
          "type": "uint256"
        }
      ],
      "stateMutability": "view",
      "type": "function"
    },
    {
      "inputs": [],
      "name": "RESERVE_BPS",
      "outputs": [
        {
          "internalType": "uint256",
          "name": "",
          "type": "uint256"
        }
      ],
      "stateMutability": "view",
      "type": "function"
    },
    {
      "inputs": [],
      "name": "brdg",
      "outputs": [
        {
          "internalType": "contract IERC20",
          "name": "",
          "type": "address"
        }
      ],
      "stateMutability": "view",
      "type": "function"
    },
    {
      "inputs": [],
      "name": "brdgBuckets",
      "outputs": [
        {
          "internalType": "uint256",
          "name": "ops",
          "type": "uint256"
        },
        {
          "internalType": "uint256",
          "name": "liquidity",
          "type": "uint256"
        },
        {
          "internalType": "uint256",
          "name": "reserve",
          "type": "uint256"
        },
        {
          "internalType": "uint256",
          "name": "founder",
          "type": "uint256"
        }
      ],
      "stateMutability": "view",
      "type": "function"
    },
    {
      "inputs": [],
      "name": "bucketBalances",
      "outputs": [
        {
          "internalType": "uint256",
          "name": "opsEth",
          "type": "uint256"
        },
        {
          "internalType": "uint256",
          "name": "liqEth",
          "type": "uint256"
        },
        {
          "internalType": "uint256",
          "name": "resEth",
          "type": "uint256"
        },
        {
          "internalType": "uint256",
          "name": "fndEth",
          "type": "uint256"
        },
        {
          "internalType": "uint256",
          "name": "opsBrdg",
          "type": "uint256"
        },
        {
          "internalType": "uint256",
          "name": "liqBrdg",
          "type": "uint256"
        },
        {
          "internalType": "uint256",
          "name": "resBrdg",
          "type": "uint256"
        },
        {
          "internalType": "uint256",
          "name": "fndBrdg",
          "type": "uint256"
        }
      ],
      "stateMutability": "view",
      "type": "function"
    },
    {
      "inputs": [
        {
          "internalType": "uint256",
          "name": "amount",
          "type": "uint256"
        }
      ],
      "name": "depositBrdg",
      "outputs": [],
      "stateMutability": "nonpayable",
      "type": "function"
    },
    {
      "inputs": [],
      "name": "ethBuckets",
      "outputs": [
        {
          "internalType": "uint256",
          "name": "ops",
          "type": "uint256"
        },
        {
          "internalType": "uint256",
          "name": "liquidity",
          "type": "uint256"
        },
        {
          "internalType": "uint256",
          "name": "reserve",
          "type": "uint256"
        },
        {
          "internalType": "uint256",
          "name": "founder",
          "type": "uint256"
        }
      ],
      "stateMutability": "view",
      "type": "function"
    },
    {
      "inputs": [],
      "name": "owner",
      "outputs": [
        {
          "internalType": "address",
          "name": "",
          "type": "address"
        }
      ],
      "stateMutability": "view",
      "type": "function"
    },
    {
      "inputs": [],
      "name": "renounceOwnership",
      "outputs": [],
      "stateMutability": "nonpayable",
      "type": "function"
    },
    {
      "inputs": [],
      "name": "totalBrdgDeposited",
      "outputs": [
        {
          "internalType": "uint256",
          "name": "",
          "type": "uint256"
        }
      ],
      "stateMutability": "view",
      "type": "function"
    },
    {
      "inputs": [],
      "name": "totalEthDeposited",
      "outputs": [
        {
          "internalType": "uint256",
          "name": "",
          "type": "uint256"
        }
      ],
      "stateMutability": "view",
      "type": "function"
    },
    {
      "inputs": [
        {
          "internalType": "address",
          "name": "newOwner",
          "type": "address"
        }
      ],
      "name": "transferOwnership",
      "outputs": [],
      "stateMutability": "nonpayable",
      "type": "function"
    },
    {
      "inputs": [
        {
          "internalType": "string",
          "name": "bucket",
          "type": "string"
        },
        {
          "internalType": "address",
          "name": "to",
          "type": "address"
        },
        {
          "internalType": "uint256",
          "name": "amount",
          "type": "uint256"
        }
      ],
      "name": "withdrawBrdg",
      "outputs": [],
      "stateMutability": "nonpayable",
      "type": "function"
    },
    {
      "inputs": [
        {
          "internalType": "string",
          "name": "bucket",
          "type": "string"
        },
        {
          "internalType": "address",
          "name": "to",
          "type": "address"
        },
        {
          "internalType": "uint256",
          "name": "amount",
          "type": "uint256"
        }
      ],
      "name": "withdrawEth",
      "outputs": [],
      "stateMutability": "nonpayable",
      "type": "function"
    },
    {
      "stateMutability": "payable",
      "type": "receive"
    }
  ],
  "bytecode": "0x60a060405234801561001057600080fd5b5060405161102a38038061102a83398101604081905261002f91610103565b338061005657604051631e4fbdf760e01b8152600060048201526024015b60405180910390fd5b61005f816100b3565b506001600160a01b0381166100a25760405162461bcd60e51b81526020600482015260096024820152687a65726f206272646760b81b604482015260640161004d565b6001600160a01b0316608052610133565b600080546001600160a01b038381166001600160a01b0319831681178455604051919092169283917f8be0079c531659141344cd1fd0a4f28419497f9722a3daafe3b4186f6b6457e09190a35050565b60006020828403121561011557600080fd5b81516001600160a01b038116811461012c57600080fd5b9392505050565b608051610ece61015c6000396000818161022c015281816104af01526107f60152610ece6000f3fe6080604052600436106100f75760003560e01c80638da5cb5b1161008a578063e41dc9f811610059578063e41dc9f814610330578063eae6754a14610346578063edc663681461035c578063f2fde38b1461037f57600080fd5b80638da5cb5b1461027c578063b4a911e11461029a578063b4f20e45146102ba578063c322798b146102d057600080fd5b806358af3947116100c657806358af3947146101c2578063715018a61461020557806377e27f4c1461021a57806389f1fb7f1461026657600080fd5b80631429490d14610141578063351afe831461016357806346d063351461018c57806355aaf082146101ac57600080fd5b3661013c576101053461039f565b60405134815233907f66ff7c8f71ccc7c36152a41920d0d3b46ef3034359f76aa1498ed4478c204b5c9060200160405180910390a2005b600080fd5b34801561014d57600080fd5b5061016161015c366004610cf7565b6104a2565b005b34801561016f57600080fd5b506101796109c481565b6040519081526020015b60405180910390f35b34801561019857600080fd5b506101616101a7366004610d2c565b610610565b3480156101b857600080fd5b50610179600a5481565b3480156101ce57600080fd5b506001546002546003546004546101e59392919084565b604080519485526020850193909352918301526060820152608001610183565b34801561021157600080fd5b5061016161085a565b34801561022657600080fd5b5061024e7f000000000000000000000000000000000000000000000000000000000000000081565b6040516001600160a01b039091168152602001610183565b34801561027257600080fd5b50610179610fa081565b34801561028857600080fd5b506000546001600160a01b031661024e565b3480156102a657600080fd5b506101616102b5366004610d2c565b61086e565b3480156102c657600080fd5b506101796105dc81565b3480156102dc57600080fd5b50600154600254600354600454600554600654600754600854604080519889526020890197909752958701949094526060860192909252608085015260a084015260c083015260e082015261010001610183565b34801561033c57600080fd5b506101796107d081565b34801561035257600080fd5b5061017960095481565b34801561036857600080fd5b506005546006546007546008546101e59392919084565b34801561038b57600080fd5b5061016161039a366004610db5565b610aee565b60006127106103b0610fa084610ded565b6103ba9190610e0a565b905060006127106103cd6109c485610ded565b6103d79190610e0a565b905060006127106103ea6107d086610ded565b6103f49190610e0a565b9050600081836104048688610e2c565b61040e9190610e2c565b6104189190610e2c565b9050836001600001600082825461042f9190610e3f565b909155505060028054849190600090610449908490610e3f565b909155505060038054839190600090610463908490610e3f565b90915550506004805482919060009061047d908490610e3f565b9250508190555084600960008282546104969190610e3f565b90915550505050505050565b6104d76001600160a01b037f000000000000000000000000000000000000000000000000000000000000000016333084610b2c565b60006127106104e8610fa084610ded565b6104f29190610e0a565b905060006127106105056109c485610ded565b61050f9190610e0a565b905060006127106105226107d086610ded565b61052c9190610e0a565b90506000818361053c8688610e2c565b6105469190610e2c565b6105509190610e2c565b905083600560000160008282546105679190610e3f565b909155505060068054849190600090610581908490610e3f565b90915550506007805483919060009061059b908490610e3f565b9091555050600880548291906000906105b5908490610e3f565b9250508190555084600a60008282546105ce9190610e3f565b909155505060405185815233907f64881061bf418a4dc92b1d162dd541878fda7966be4138701fdd022b1d667891906020015b60405180910390a25050505050565b610618610b68565b6001600160a01b03821661065d5760405162461bcd60e51b81526020600482015260076024820152667a65726f20746f60c81b60448201526064015b60405180910390fd5b6000848460405161066f929190610e52565b604051809103902090507f648c1041397070b6773cd376c40d6c1919cba81c9174b0a822ac0f4174eaf13181036106cf576005548211156106af57600080fd5b81600560000160008282546106c49190610e2c565b909155506107e99050565b7fbb7d9f8cddc6f064ba72d0e3c1e53eb67867dd8506fa4f5d61c86189caca8ee5810361071a5760065482111561070557600080fd5b81600560010160008282546106c49190610e2c565b7ff712c2fa585715e22c7fcc833629ce4482ad96496ecd08f3a14847183c4ef4ee81036107655760075482111561075057600080fd5b81600560020160008282546106c49190610e2c565b7fcaa6459ec81872a8250a28a4b93bd1b544f7a69ba2fd6ba05ca9b676ef5b1a9c81036107b05760085482111561079b57600080fd5b81600560030160008282546106c49190610e2c565b60405162461bcd60e51b815260206004820152600e60248201526d1a5b9d985b1a5908189d58dad95d60921b6044820152606401610654565b61081d6001600160a01b037f0000000000000000000000000000000000000000000000000000000000000000168484610b95565b826001600160a01b03167f01e36e20d916d8d1442e47266a3144cca486c9d8a992f90cd48cdcb3270d3dad83878760405161060193929190610e62565b610862610b68565b61086c6000610bcf565b565b610876610b68565b6001600160a01b0382166108b65760405162461bcd60e51b81526020600482015260076024820152667a65726f20746f60c81b6044820152606401610654565b600084846040516108c8929190610e52565b604051809103902090507f648c1041397070b6773cd376c40d6c1919cba81c9174b0a822ac0f4174eaf13181036109285760015482111561090857600080fd5b816001600001600082825461091d9190610e2c565b90915550610a089050565b7fbb7d9f8cddc6f064ba72d0e3c1e53eb67867dd8506fa4f5d61c86189caca8ee581036109725760025482111561095e57600080fd5b8160018001600082825461091d9190610e2c565b7ff712c2fa585715e22c7fcc833629ce4482ad96496ecd08f3a14847183c4ef4ee81036109bd576003548211156109a857600080fd5b816001600201600082825461091d9190610e2c565b7fcaa6459ec81872a8250a28a4b93bd1b544f7a69ba2fd6ba05ca9b676ef5b1a9c81036107b0576004548211156109f357600080fd5b816001600301600082825461091d9190610e2c565b6000836001600160a01b03168360405160006040518083038185875af1925050503d8060008114610a55576040519150601f19603f3d011682016040523d82523d6000602084013e610a5a565b606091505b5050905080610aa15760405162461bcd60e51b8152602060048201526013602482015272195d1a081d1c985b9cd9995c8819985a5b1959606a1b6044820152606401610654565b836001600160a01b03167fb02652db2e92cbe44ca563f83c993ca860d1376a6f11a6de22344638fe23cd77848888604051610ade93929190610e62565b60405180910390a2505050505050565b610af6610b68565b6001600160a01b038116610b2057604051631e4fbdf760e01b815260006004820152602401610654565b610b2981610bcf565b50565b610b3a848484846001610c1f565b610b6257604051635274afe760e01b81526001600160a01b0385166004820152602401610654565b50505050565b6000546001600160a01b0316331461086c5760405163118cdaa760e01b8152336004820152602401610654565b610ba28383836001610c91565b610bca57604051635274afe760e01b81526001600160a01b0384166004820152602401610654565b505050565b600080546001600160a01b038381166001600160a01b0319831681178455604051919092169283917f8be0079c531659141344cd1fd0a4f28419497f9722a3daafe3b4186f6b6457e09190a35050565b6040516323b872dd60e01b60008181526001600160a01b038781166004528616602452604485905291602083606481808c5af192506001600051148316610c7f578383151615610c72573d6000823e3d81fd5b6000883b113d1516831692505b60405250600060605295945050505050565b60405163a9059cbb60e01b60008181526001600160a01b038616600452602485905291602083604481808b5af192506001600051148316610ceb578383151615610cde573d6000823e3d81fd5b6000873b113d1516831692505b60405250949350505050565b600060208284031215610d0957600080fd5b5035919050565b80356001600160a01b0381168114610d2757600080fd5b919050565b60008060008060608587031215610d4257600080fd5b843567ffffffffffffffff80821115610d5a57600080fd5b818701915087601f830112610d6e57600080fd5b813581811115610d7d57600080fd5b886020828501011115610d8f57600080fd5b602092830196509450610da59187019050610d10565b9396929550929360400135925050565b600060208284031215610dc757600080fd5b610dd082610d10565b9392505050565b634e487b7160e01b600052601160045260246000fd5b8082028115828204841417610e0457610e04610dd7565b92915050565b600082610e2757634e487b7160e01b600052601260045260246000fd5b500490565b81810381811115610e0457610e04610dd7565b80820180821115610e0457610e04610dd7565b8183823760009101908152919050565b83815260406020820152816040820152818360608301376000818301606090810191909152601f909201601f191601019291505056fea26469706673582212201722f5b29537839e4dd2cd3862d3ef438eba6b5a8d3beb044c3de3427997c83f64736f6c63430008140033",
  "linkReferences": {},
  "deployedLinkReferences": {}
}